{
  "address": "0xa62b7d3A6401BB42203eDE86b6ADde92fbF3dD7E",
  "abi": [
    {
      "anonymous": false,
      "inputs": [
        {
          "indexed": false,
          "internalType": "address",
          "name": "dex",
          "type": "address"
        },
        {
          "indexed": false,
          "internalType": "string",
          "name": "name",
          "type": "string"
        }
      ],
      "name": "DexAdded",
      "type": "event"
    },
    {
      "anonymous": false,
      "inputs": [
        {
          "indexed": false,
          "internalType": "address",
          "name": "owner",
          "type": "address"
        },
        {
          "indexed": false,
          "internalType": "uint256",
          "name": "oldFee",
          "type": "uint256"
        },
        {
          "indexed": false,
          "internalType": "uint256",
          "name": "newFee",
          "type": "uint256"
        }
      ],
      "name": "FeeUpdated",
      "type": "event"
    },
    {
      "anonymous": false,
      "inputs": [
        {
          "indexed": false,
          "internalType": "address",
          "name": "owner",
          "type": "address"
        }
      ],
      "name": "FeesClaimed",
      "type": "event"
    },
    {
      "anonymous": false,
      "inputs": [
        {
          "indexed": true,
          "internalType": "address",
          "name": "previousOwner",
          "type": "address"
        },
        {
          "indexed": true,
          "internalType": "address",
          "name": "newOwner",
          "type": "address"
        }
      ],
      "name": "OwnershipTransferred",
      "type": "event"
    },
    {
      "anonymous": false,
      "inputs": [
        {
          "indexed": false,
          "internalType": "address",
          "name": "tokenFrom",
          "type": "address"
        },
        {
          "indexed": false,
          "internalType": "address",
          "name": "tokenTo",
          "type": "address"
        },
        {
          "indexed": false,
          "internalType": "uint256",
          "name": "amountIn",
          "type": "uint256"
        },
        {
          "indexed": false,
          "internalType": "uint256",
          "name": "amountOut",
          "type": "uint256"
        }
      ],
      "name": "Swap",
      "type": "event"
    },
    {
      "anonymous": false,
      "inputs": [
        {
          "indexed": false,
          "internalType": "address",
          "name": "token",
          "type": "address"
        }
      ],
      "name": "TokenAdded",
      "type": "event"
    },
    {
      "inputs": [
        {
          "internalType": "address",
          "name": "dexAddress",
          "type": "address"
        },
        {
          "internalType": "string",
          "name": "name",
          "type": "string"
        }
      ],
      "name": "addDex",
      "outputs": [],
      "stateMutability": "nonpayable",
      "type": "function"
    },
    {
      "inputs": [
        {
          "internalType": "address",
          "name": "newToken",
          "type": "address"
        }
      ],
      "name": "addToken",
      "outputs": [],
      "stateMutability": "nonpayable",
      "type": "function"
    },
    {
      "inputs": [
        {
          "internalType": "uint256",
          "name": "tokenFromIndex",
          "type": "uint256"
        }
      ],
      "name": "fillBoard",
      "outputs": [
        {
          "internalType": "int256[][]",
          "name": "exchangeRates",
          "type": "int256[][]"
        },
        {
          "internalType": "address[][]",
          "name": "exchanges",
          "type": "address[][]"
        },
        {
          "internalType": "int256[]",
          "name": "pathTo",
          "type": "int256[]"
        },
        {
          "internalType": "uint256[]",
          "name": "parents",
          "type": "uint256[]"
        },
        {
          "internalType": "bool",
          "name": "arbExists",
          "type": "bool"
        }
      ],
      "stateMutability": "view",
      "type": "function"
    },
    {
      "inputs": [
        {
          "internalType": "address",
          "name": "tokenIn",
          "type": "address"
        },
        {
          "internalType": "address",
          "name": "tokenOut",
          "type": "address"
        },
        {
          "internalType": "uint256",
          "name": "amountIn",
          "type": "uint256"
        }
      ],
      "name": "getBestExchange",
      "outputs": [
        {
          "internalType": "int256",
          "name": "rate",
          "type": "int256"
        },
        {
          "internalType": "address",
          "name": "exchange",
          "type": "address"
        }
      ],
      "stateMutability": "view",
      "type": "function"
    },
    {
      "inputs": [
        {
          "internalType": "address",
          "name": "tokenIn",
          "type": "address"
        },
        {
          "internalType": "address",
          "name": "tokenOut",
          "type": "address"
        },
        {
          "internalType": "uint256",
          "name": "amountIn",
          "type": "uint256"
        }
      ],
      "name": "getExpectedOut",
      "outputs": [
        {
          "internalType": "uint256",
          "name": "amountOut",
          "type": "uint256"
        },
        {
          "internalType": "address[]",
          "name": "tokenPath",
          "type": "address[]"
        },
        {
          "internalType": "address[]",
          "name": "exchangePath",
          "type": "address[]"
        }
      ],
      "stateMutability": "view",
      "type": "function"
    },
    {
      "inputs": [],
      "name": "getFees",
      "outputs": [],
      "stateMutability": "nonpayable",
      "type": "function"
    },
    {
      "inputs": [
        {
          "internalType": "uint256",
          "name": "tokenFromIndex",
          "type": "uint256"
        },
        {
          "internalType": "uint256",
          "name": "tokenOutIndex",
          "type": "uint256"
        },
        {
          "internalType": "int256[][]",
          "name": "exchangeRates",
          "type": "int256[][]"
        },
        {
          "internalType": "address[][]",
          "name": "exchanges",
          "type": "address[][]"
        },
        {
          "internalType": "int256[]",
          "name": "pathTo",
          "type": "int256[]"
        },
        {
          "internalType": "uint256[]",
          "name": "parents",
          "type": "uint256[]"
        }
      ],
      "name": "getPathFromBoard",
      "outputs": [
        {
          "internalType": "address[]",
          "name": "tokenPath",
          "type": "address[]"
        },
        {
          "internalType": "address[]",
          "name": "exchangePath",
          "type": "address[]"
        }
      ],
      "stateMutability": "view",
      "type": "function"
    },
    {
      "inputs": [],
      "name": "owner",
      "outputs": [
        {
          "internalType": "address",
          "name": "",
          "type": "address"
        }
      ],
      "stateMutability": "view",
      "type": "function"
    },
    {
      "inputs": [],
      "name": "renounceOwnership",
      "outputs": [],
      "stateMutability": "nonpayable",
      "type": "function"
    },
    {
      "inputs": [
        {
          "internalType": "address[]",
          "name": "tokenPath",
          "type": "address[]"
        },
        {
          "internalType": "address[]",
          "name": "exchangePath",
          "type": "address[]"
        },
        {
          "internalType": "uint256",
          "name": "amountIn",
          "type": "uint256"
        },
        {
          "internalType": "uint256",
          "name": "minAmountOut",
          "type": "uint256"
        },
        {
          "internalType": "address",
          "name": "recipient",
          "type": "address"
        }
      ],
      "name": "swap",
      "outputs": [
        {
          "internalType": "uint256",
          "name": "actualAmountOut",
          "type": "uint256"
        }
      ],
      "stateMutability": "nonpayable",
      "type": "function"
    },
    {
      "inputs": [
        {
          "internalType": "address",
          "name": "tokenIn",
          "type": "address"
        },
        {
          "internalType": "address",
          "name": "tokenOut",
          "type": "address"
        },
        {
          "internalType": "uint256",
          "name": "amountIn",
          "type": "uint256"
        },
        {
          "internalType": "uint256",
          "name": "minAmountOut",
          "type": "uint256"
        },
        {
          "internalType": "address",
          "name": "recipient",
          "type": "address"
        }
      ],
      "name": "swapOnChain",
      "outputs": [
        {
          "internalType": "uint256",
          "name": "",
          "type": "uint256"
        }
      ],
      "stateMutability": "nonpayable",
      "type": "function"
    },
    {
      "inputs": [
        {
          "internalType": "address",
          "name": "newOwner",
          "type": "address"
        }
      ],
      "name": "transferOwnership",
      "outputs": [],
      "stateMutability": "nonpayable",
      "type": "function"
    },
    {
      "inputs": [
        {
          "internalType": "uint256",
          "name": "_fee",
          "type": "uint256"
        }
      ],
      "name": "updateFee",
      "outputs": [],
      "stateMutability": "nonpayable",
      "type": "function"
    }
  ],
  "transactionHash": "0x865d2b107fdc83f9c36096050a93b2f772012d93d23a4d6652c0221a66705b7c",
  "args": [],
  "solcInputHash": "012008fbf0d13dacd607bc58cc486cfe",
  "bytecode": "0x60806040526302faf0806005556402540be4006006553480156200002257600080fd5b5062000037620000316200003d565b62000041565b62000091565b3390565b600080546001600160a01b038381166001600160a01b0319831681178455604051919092169283917f8be0079c531659141344cd1fd0a4f28419497f9722a3daafe3b4186f6b6457e09190a35050565b612e4580620000a16000396000f3fe608060405234801561001057600080fd5b50600436106100df5760003560e01c806372799c0c1161008c5780639012c4a8116100665780639012c4a8146101da578063d48bfca7146101ed578063db8d55f114610200578063f2fde38b14610208576100df565b806372799c0c146101915780638da5cb5b146101a45780638e811893146101b9576100df565b8063619a0d62116100bd578063619a0d62146101445780636e9105e414610168578063715018a614610189576100df565b8063089941cf146100e457806308d1aa631461010f5780635ed8bda514610124575b600080fd5b6100f76100f236600461225a565b61021b565b60405161010693929190612a90565b60405180910390f35b61012261011d3660046122eb565b610289565b005b610137610132366004612295565b6103e5565b6040516101069190612a87565b61015761015236600461241a565b61044c565b6040516101069594939291906126fe565b61017b61017636600461225a565b610b5a565b6040516101069291906127c9565b610122610d3b565b61013761019f366004612369565b610d86565b6101ac611357565b60405161010691906125d8565b6101cc6101c7366004612432565b611366565b6040516101069291906126d0565b6101226101e836600461241a565b611827565b6101226101fb366004612239565b6118af565b610122611a1b565b610122610216366004612239565b611c09565b6000606080600061022b87611c7a565b9050600061023887611c7a565b9050600080600080600061024b8761044c565b94509450945094509450600080610266898989898989611366565b9150915061027582828f611d05565b9b5050505050505050505093509350939050565b610291611e80565b6001600160a01b03166102a2611357565b6001600160a01b0316146102d15760405162461bcd60e51b81526004016102c890612987565b60405180910390fd5b6001600160a01b03831660009081526003602052604090205460ff161561030a5760405162461bcd60e51b81526004016102c890612919565b6001600160a01b03831660008181526003602052604080822080547fffffffffffffffffffffffffffffffffffffffffffffffffffffffffffffff001660019081179091558054808201825592527fb10e2d527612073b26eecdfd717e6a320cf44b4afac2b0732d9fcbe2b7fa0cf690910180547fffffffffffffffffffffffff000000000000000000000000000000000000000016909217909155517f7b1869d3ff2bcab15b83cbc59ad58cfce8f9cbd573b3c6c58cc888fea1c39f93906103d890859085908590612639565b60405180910390a1505050565b6000806103f187611c7a565b905060006103fe87611c7a565b905060008060008061040f8661044c565b509350935093509350600080610429888888888888611366565b9150915061043a82828e8e8e610d86565b9e9d5050505050505050505050505050565b606080606080600060045467ffffffffffffffff81111561047d57634e487b7160e01b600052604160045260246000fd5b6040519080825280602002602001820160405280156104b057816020015b606081526020019060019003908161049b5790505b50945060045467ffffffffffffffff8111156104dc57634e487b7160e01b600052604160045260246000fd5b60405190808252806020026020018201604052801561050f57816020015b60608152602001906001900390816104fa5790505b50935060045467ffffffffffffffff81111561053b57634e487b7160e01b600052604160045260246000fd5b604051908082528060200260200182016040528015610564578160200160208202803683370190505b50925060045467ffffffffffffffff81111561059057634e487b7160e01b600052604160045260246000fd5b6040519080825280602002602001820160405280156105b9578160200160208202803683370190505b50915060005b600454811015610964577f7fffffffffffffffffffffffffffffffffffffffffffffffffffffffffffffff84828151811061060a57634e487b7160e01b600052603260045260246000fd5b60200260200101818152505060045467ffffffffffffffff81111561063f57634e487b7160e01b600052604160045260246000fd5b604051908082528060200260200182016040528015610668578160200160208202803683370190505b5086828151811061068957634e487b7160e01b600052603260045260246000fd5b602002602001018190525060045467ffffffffffffffff8111156106bd57634e487b7160e01b600052604160045260246000fd5b6040519080825280602002602001820160405280156106e6578160200160208202803683370190505b5085828151811061070757634e487b7160e01b600052603260045260246000fd5b60200260200101819052508681141561074957600084828151811061073c57634e487b7160e01b600052603260045260246000fd5b6020026020010181815250505b60005b6004548110156109515760006002828154811061077957634e487b7160e01b600052603260045260246000fd5b60009182526020822001546001600160a01b031691505b60045481101561093c5760008061085c84600285815481106107c257634e487b7160e01b600052603260045260246000fd5b9060005260206000200160009054906101000a90046001600160a01b0316866001600160a01b031663313ce5676040518163ffffffff1660e01b815260040160206040518083038186803b15801561081957600080fd5b505afa15801561082d573d6000803e3d6000fd5b505050506040513d601f19601f8201168201806040525081019061085191906124ec565b61017690600a612c09565b91509150808a868151811061088157634e487b7160e01b600052603260045260246000fd5b602002602001015184815181106108a857634e487b7160e01b600052603260045260246000fd5b6001600160a01b03909216602092830291909101909101526108d46108cf83600019612cda565b611e84565b8b86815181106108f457634e487b7160e01b600052603260045260246000fd5b6020026020010151848151811061091b57634e487b7160e01b600052603260045260246000fd5b6020026020010181815250505050808061093490612dc8565b915050610790565b5050808061094990612dc8565b91505061074c565b508061095c81612dc8565b9150506105bf565b50600160005b600454811080156109785750815b15610b4f57600091508061098b81612dc8565b91505060005b600454811015610b3b5760008682815181106109bd57634e487b7160e01b600052603260045260246000fd5b6020026020010151905060005b600454811015610b26578781815181106109f457634e487b7160e01b600052603260045260246000fd5b60200260200101518a8481518110610a1c57634e487b7160e01b600052603260045260246000fd5b60200260200101518281518110610a4357634e487b7160e01b600052603260045260246000fd5b602002602001015183610a569190612b17565b1215610b1457898381518110610a7c57634e487b7160e01b600052603260045260246000fd5b60200260200101518181518110610aa357634e487b7160e01b600052603260045260246000fd5b602002602001015182610ab69190612b17565b888281518110610ad657634e487b7160e01b600052603260045260246000fd5b6020026020010181815250506001945082878281518110610b0757634e487b7160e01b600052603260045260246000fd5b6020026020010181815250505b80610b1e81612dc8565b9150506109ca565b50508080610b3390612dc8565b915050610991565b50600454811415610b4a578192505b61096a565b505091939590929450565b6000806000805b600154811015610c8d57600060018281548110610b8e57634e487b7160e01b600052603260045260246000fd5b6000918252602090912001546040517fc515ee230000000000000000000000000000000000000000000000000000000081526001600160a01b039091169063c515ee2390610be4908b908b908b906004016125ec565b60206040518083038186803b158015610bfc57600080fd5b505afa158015610c10573d6000803e3d6000fd5b505050506040513d601f19601f82011682018060405250810190610c349190612402565b905082811115610c7a5780925060018281548110610c6257634e487b7160e01b600052603260045260246000fd5b6000918252602090912001546001600160a01b031693505b5080610c8581612dc8565b915050610b61565b506040517fed724804000000000000000000000000000000000000000000000000000000008152738D8D982DFC974A9F81F68DCfA1E42be5406738779063ed72480490610ce09087908590600401612abb565b60206040518083038186803b158015610cf857600080fd5b505af4158015610d0c573d6000803e3d6000fd5b505050506040513d601f19601f82011682018060405250810190610d309190612402565b925050935093915050565b610d43611e80565b6001600160a01b0316610d54611357565b6001600160a01b031614610d7a5760405162461bcd60e51b81526004016102c890612987565b610d846000611f4c565b565b60006001865111610da95760405162461bcd60e51b81526004016102c890612a2a565b60018651610db79190612db1565b855114610dd65760405162461bcd60e51b81526004016102c8906128e2565b600086600081518110610df957634e487b7160e01b600052603260045260246000fd5b60200260200101519050806001600160a01b03166323b872dd3330886040518463ffffffff1660e01b8152600401610e33939291906125ec565b602060405180830381600087803b158015610e4d57600080fd5b505af1158015610e61573d6000803e3d6000fd5b505050506040513d601f19601f82011682018060405250810190610e8591906123e2565b610ea15760405162461bcd60e51b81526004016102c8906128ab565b84915060005b86518110156111b257878181518110610ed057634e487b7160e01b600052603260045260246000fd5b60200260200101519150600088826001610eea9190612b8b565b81518110610f0857634e487b7160e01b600052603260045260246000fd5b602002602001015190506000816001600160a01b03166370a08231306040518263ffffffff1660e01b8152600401610f4091906125d8565b60206040518083038186803b158015610f5857600080fd5b505afa158015610f6c573d6000803e3d6000fd5b505050506040513d601f19601f82011682018060405250810190610f909190612402565b90506000898481518110610fb457634e487b7160e01b600052603260045260246000fd5b60200260200101519050846001600160a01b031663095ea7b382886040518363ffffffff1660e01b8152600401610fec929190612696565b602060405180830381600087803b15801561100657600080fd5b505af115801561101a573d6000803e3d6000fd5b505050506040513d601f19601f8201168201806040525081019061103e91906123e2565b61105a5760405162461bcd60e51b81526004016102c890612950565b6040517ffe0291560000000000000000000000000000000000000000000000000000000081526001600160a01b0382169063fe029156906110a690889087908b90600090600401612610565b602060405180830381600087803b1580156110c057600080fd5b505af11580156110d4573d6000803e3d6000fd5b505050506040513d601f19601f820116820180604052508101906110f89190612402565b506040517f70a0823100000000000000000000000000000000000000000000000000000000815282906001600160a01b038516906370a08231906111409030906004016125d8565b60206040518083038186803b15801561115857600080fd5b505afa15801561116c573d6000803e3d6000fd5b505050506040513d601f19601f820116820180604052508101906111909190612402565b61119a9190612db1565b955050505080806111aa90612dc8565b915050610ea7565b506000600654600554846111c69190612d92565b6111d09190612ba3565b90506111dc8184612db1565b9250848310156111fe5760405162461bcd60e51b81526004016102c890612817565b876001895161120d9190612db1565b8151811061122b57634e487b7160e01b600052603260045260246000fd5b60200260200101516001600160a01b031663a9059cbb85856040518363ffffffff1660e01b8152600401611260929190612696565b602060405180830381600087803b15801561127a57600080fd5b505af115801561128e573d6000803e3d6000fd5b505050506040513d601f19601f820116820180604052508101906112b291906123e2565b507ffa2dda1cc1b86e41239702756b13effbc1a092b5c57e3ad320fbe4f3b13fe235886000815181106112f557634e487b7160e01b600052603260045260246000fd5b60200260200101518960018b5161130c9190612db1565b8151811061132a57634e487b7160e01b600052603260045260246000fd5b602002602001015188866040516113449493929190612610565b60405180910390a1505095945050505050565b6000546001600160a01b031690565b60608060045467ffffffffffffffff81111561139257634e487b7160e01b600052604160045260246000fd5b6040519080825280602002602001820160405280156113bb578160200160208202803683370190505b50915060045467ffffffffffffffff8111156113e757634e487b7160e01b600052604160045260246000fd5b604051908082528060200260200182016040528015611410578160200160208202803683370190505b5090508660005b89821461158457600454811061143f5760405162461bcd60e51b81526004016102c8906129bc565b600085838151811061146157634e487b7160e01b600052603260045260246000fd5b602002602001015190506002838154811061148c57634e487b7160e01b600052603260045260246000fd5b9060005260206000200160009054906101000a90046001600160a01b03168583815181106114ca57634e487b7160e01b600052603260045260246000fd5b60200260200101906001600160a01b031690816001600160a01b03168152505087818151811061150a57634e487b7160e01b600052603260045260246000fd5b6020026020010151838151811061153157634e487b7160e01b600052603260045260246000fd5b602002602001015184838061154590612dc8565b94508151811061156557634e487b7160e01b600052603260045260246000fd5b6001600160a01b03909216602092830291909101909101529150611417565b60028a815481106115a557634e487b7160e01b600052603260045260246000fd5b6000918252602090912001546001600160a01b031684826115c581612dc8565b9350815181106115e557634e487b7160e01b600052603260045260246000fd5b60200260200101906001600160a01b031690816001600160a01b03168152505060005b611613600283612ba3565b811161181957600085828151811061163b57634e487b7160e01b600052603260045260246000fd5b60200260200101519050858287516116539190612db1565b8151811061167157634e487b7160e01b600052603260045260246000fd5b602002602001015186838151811061169957634e487b7160e01b600052603260045260246000fd5b60200260200101906001600160a01b031690816001600160a01b03168152505080868388516116c89190612db1565b815181106116e657634e487b7160e01b600052603260045260246000fd5b60200260200101906001600160a01b031690816001600160a01b031681525050600285516117149190612ba3565b82116118065784828151811061173a57634e487b7160e01b600052603260045260246000fd5b60200260200101519050848286516117529190612db1565b8151811061177057634e487b7160e01b600052603260045260246000fd5b602002602001015185838151811061179857634e487b7160e01b600052603260045260246000fd5b60200260200101906001600160a01b031690816001600160a01b03168152505080858387516117c79190612db1565b815181106117e557634e487b7160e01b600052603260045260246000fd5b60200260200101906001600160a01b031690816001600160a01b0316815250505b508061181181612dc8565b915050611608565b505050965096945050505050565b61182f611e80565b6001600160a01b0316611840611357565b6001600160a01b0316146118665760405162461bcd60e51b81526004016102c890612987565b7fcf5b6c438b64611d8ee0722509d7ad5149d4f779f0b29bc845152f0d89e42e1961188f611357565b600554836040516118a2939291906126af565b60405180910390a1600555565b6118b7611e80565b6001600160a01b03166118c8611357565b6001600160a01b0316146118ee5760405162461bcd60e51b81526004016102c890612987565b60005b60025481101561196b57816001600160a01b03166002828154811061192657634e487b7160e01b600052603260045260246000fd5b6000918252602090912001546001600160a01b031614156119595760405162461bcd60e51b81526004016102c8906129f3565b8061196381612dc8565b9150506118f1565b506002805460018101825560009182527f405787fa12a823e0f2b7631cc41b3ba8828b3321ca811111fa75cd3aa3bb5ace0180547fffffffffffffffffffffffff0000000000000000000000000000000000000000166001600160a01b03841617905560048054916119dc83612dc8565b91905055507f784c8f4dbf0ffedd6e72c76501c545a70f8b203b30a26ce542bf92ba87c248a481604051611a1091906125d8565b60405180910390a150565b611a23611e80565b6001600160a01b0316611a34611357565b6001600160a01b031614611a5a5760405162461bcd60e51b81526004016102c890612987565b60005b600454811015611bc857600060028281548110611a8a57634e487b7160e01b600052603260045260246000fd5b6000918252602090912001546001600160a01b031690508063a9059cbb611aaf611357565b6040517f70a082310000000000000000000000000000000000000000000000000000000081526001600160a01b038516906370a0823190611af49030906004016125d8565b60206040518083038186803b158015611b0c57600080fd5b505afa158015611b20573d6000803e3d6000fd5b505050506040513d601f19601f82011682018060405250810190611b449190612402565b6040518363ffffffff1660e01b8152600401611b61929190612696565b602060405180830381600087803b158015611b7b57600080fd5b505af1158015611b8f573d6000803e3d6000fd5b505050506040513d601f19601f82011682018060405250810190611bb391906123e2565b50508080611bc090612dc8565b915050611a5d565b507fc708bc9126baf78945ae1d05c03aa332ca0460db0e59169024d96f0188f411d1611bf2611357565b604051611bff91906125d8565b60405180910390a1565b611c11611e80565b6001600160a01b0316611c22611357565b6001600160a01b031614611c485760405162461bcd60e51b81526004016102c890612987565b6001600160a01b038116611c6e5760405162461bcd60e51b81526004016102c89061284e565b611c7781611f4c565b50565b6000805b600454811015611ce757826001600160a01b031660028281548110611cb357634e487b7160e01b600052603260045260246000fd5b6000918252602090912001546001600160a01b03161415611cd5579050611d00565b80611cdf81612dc8565b915050611c7e565b5060405162461bcd60e51b81526004016102c8906127e0565b919050565b60006001845111611d285760405162461bcd60e51b81526004016102c890612a2a565b60018451611d369190612db1565b835114611d555760405162461bcd60e51b81526004016102c8906128e2565b508060005b8351811015611e7857838181518110611d8357634e487b7160e01b600052603260045260246000fd5b60200260200101516001600160a01b031663c515ee23868381518110611db957634e487b7160e01b600052603260045260246000fd5b602002602001015187846001611dcf9190612b8b565b81518110611ded57634e487b7160e01b600052603260045260246000fd5b6020026020010151856040518463ffffffff1660e01b8152600401611e14939291906125ec565b60206040518083038186803b158015611e2c57600080fd5b505afa158015611e40573d6000803e3d6000fd5b505050506040513d601f19601f82011682018060405250810190611e649190612402565b915080611e7081612dc8565b915050611d5a565b509392505050565b3390565b6000808213611e9257600080fd5b6000670de0b6b3a76400008312611eab57506001611ec5565b6000199050826ec097ce7bc90715b34b9f10000000000492505b6000611eda670de0b6b3a76400008505611fb4565b670de0b6b3a7640000808202945090915084821d90811415611efe57505002611d00565b6706f05b59d3b200005b6000811315611f4357670de0b6b3a7640000828002059150671bc16d674ec800008212611f3b579384019360019190911d905b60011d611f08565b50505002919050565b600080546001600160a01b038381167fffffffffffffffffffffffff0000000000000000000000000000000000000000831681178455604051919092169283917f8be0079c531659141344cd1fd0a4f28419497f9722a3daafe3b4186f6b6457e09190a35050565b60007001000000000000000000000000000000008210611fe157608091821c91611fde9082612b8b565b90505b68010000000000000000821061200457604091821c916120019082612b8b565b90505b640100000000821061202357602091821c916120209082612b8b565b90505b62010000821061204057601091821c9161203d9082612b8b565b90505b610100821061205c57600891821c916120599082612b8b565b90505b6010821061207757600491821c916120749082612b8b565b90505b6004821061209257600291821c9161208f9082612b8b565b90505b60028210611d00576120a5600182612b8b565b92915050565b80356001600160a01b0381168114611d0057600080fd5b600082601f8301126120d2578081fd5b813560206120e76120e283612af3565b612ac9565b8281528181019085830183850287018401881015612103578586fd5b855b8581101561212857612116826120ab565b84529284019290840190600101612105565b5090979650505050505050565b600082601f830112612145578081fd5b813560206121556120e283612af3565b82815281810190858301855b8581101561212857612178898684358b01016120c2565b84529284019290840190600101612161565b600082601f83011261219a578081fd5b813560206121aa6120e283612af3565b82815281810190858301855b85811015612128576121cd898684358b01016121df565b845292840192908401906001016121b6565b600082601f8301126121ef578081fd5b813560206121ff6120e283612af3565b828152818101908583018385028701840188101561221b578586fd5b855b858110156121285781358452928401929084019060010161221d565b60006020828403121561224a578081fd5b612253826120ab565b9392505050565b60008060006060848603121561226e578182fd5b612277846120ab565b9250612285602085016120ab565b9150604084013590509250925092565b600080600080600060a086880312156122ac578081fd5b6122b5866120ab565b94506122c3602087016120ab565b935060408601359250606086013591506122df608087016120ab565b90509295509295909350565b6000806000604084860312156122ff578283fd5b612308846120ab565b9250602084013567ffffffffffffffff80821115612324578384fd5b818601915086601f830112612337578384fd5b813581811115612345578485fd5b876020828501011115612356578485fd5b6020830194508093505050509250925092565b600080600080600060a08688031215612380578283fd5b853567ffffffffffffffff80821115612397578485fd5b6123a389838a016120c2565b965060208801359150808211156123b8578485fd5b506123c5888289016120c2565b94505060408601359250606086013591506122df608087016120ab565b6000602082840312156123f3578081fd5b81518015158114612253578182fd5b600060208284031215612413578081fd5b5051919050565b60006020828403121561242b578081fd5b5035919050565b60008060008060008060c0878903121561244a578384fd5b8635955060208701359450604087013567ffffffffffffffff8082111561246f578586fd5b61247b8a838b0161218a565b95506060890135915080821115612490578283fd5b61249c8a838b01612135565b945060808901359150808211156124b1578283fd5b6124bd8a838b016121df565b935060a08901359150808211156124d2578283fd5b506124df89828a016121df565b9150509295509295509295565b6000602082840312156124fd578081fd5b815160ff81168114612253578182fd5b6000815180845260208085019450808401835b838110156125455781516001600160a01b031687529582019590820190600101612520565b509495945050505050565b6000815180845260208085018081965082840281019150828601855b8581101561259657828403895261258484835161250d565b9885019893509084019060010161256c565b5091979650505050505050565b6000815180845260208085019450808401835b83811015612545578151875295820195908201906001016125b6565b15159052565b6001600160a01b0391909116815260200190565b6001600160a01b039384168152919092166020820152604081019190915260600190565b6001600160a01b0394851681529290931660208301526040820152606081019190915260800190565b60006001600160a01b03851682526040602083015282604083015282846060840137818301606090810191909152601f9092017fffffffffffffffffffffffffffffffffffffffffffffffffffffffffffffffe016010192915050565b6001600160a01b03929092168252602082015260400190565b6001600160a01b039390931683526020830191909152604082015260600190565b6000604082526126e3604083018561250d565b82810360208401526126f5818561250d565b95945050505050565b600060a0820160a0835280885180835260c0850191506020925060c0838202860101838b01855b83811015612771577fffffffffffffffffffffffffffffffffffffffffffffffffffffffffffffff4088840301855261275f8383516125a3565b94860194925090850190600101612725565b505085810384870152612784818b612550565b9350505050828103604084015261279b81876125a3565b905082810360608401526127af81866125a3565b9150506127bf60808301846125d2565b9695505050505050565b9182526001600160a01b0316602082015260400190565b60208082526016908201527f546f6b656e206973206e6f7420737570706f7274656400000000000000000000604082015260600190565b60208082526015908201527f536c6970706167652077617320746f6f20686967680000000000000000000000604082015260600190565b60208082526026908201527f4f776e61626c653a206e6577206f776e657220697320746865207a65726f206160408201527f6464726573730000000000000000000000000000000000000000000000000000606082015260800190565b6020808252600f908201527f5472616e73666572206661696c65640000000000000000000000000000000000604082015260600190565b6020808252601e908201527f45786368616e6765207061746820696e636f7272656374206c656e6774680000604082015260600190565b60208082526019908201527f4445582068617320616c72656164206265656e20616464656400000000000000604082015260600190565b6020808252600f908201527f417070726f76616c206661696c65640000000000000000000000000000000000604082015260600190565b6020808252818101527f4f776e61626c653a2063616c6c6572206973206e6f7420746865206f776e6572604082015260600190565b6020808252600e908201527f4e6f207061746820657869737473000000000000000000000000000000000000604082015260600190565b60208082526013908201527f546f6b656e20616c726561647920616464656400000000000000000000000000604082015260600190565b60208082526024908201527f50617468206d75737420636f6e7461696e2061746c656173742074776f20746f60408201527f6b656e7300000000000000000000000000000000000000000000000000000000606082015260800190565b90815260200190565b600084825260606020830152612aa9606083018561250d565b82810360408401526127bf818561250d565b918252602082015260400190565b60405181810167ffffffffffffffff81118282101715612aeb57612aeb612df9565b604052919050565b600067ffffffffffffffff821115612b0d57612b0d612df9565b5060209081020190565b6000808212827f7fffffffffffffffffffffffffffffffffffffffffffffffffffffffffffffff03841381151615612b5157612b51612de3565b827f8000000000000000000000000000000000000000000000000000000000000000038412811615612b8557612b85612de3565b50500190565b60008219821115612b9e57612b9e612de3565b500190565b600082612bbe57634e487b7160e01b81526012600452602481fd5b500490565b80825b6001808611612bd55750612c00565b818704821115612be757612be7612de3565b80861615612bf457918102915b9490941c938002612bc6565b94509492505050565b600061225360001960ff851684600082612c2557506001612253565b81612c3257506000612253565b8160018114612c485760028114612c5257612c7f565b6001915050612253565b60ff841115612c6357612c63612de3565b6001841b915084821115612c7957612c79612de3565b50612253565b5060208310610133831016604e8410600b8410161715612cb2575081810a83811115612cad57612cad612de3565b612253565b612cbf8484846001612bc3565b808604821115612cd157612cd1612de3565b02949350505050565b60007f7fffffffffffffffffffffffffffffffffffffffffffffffffffffffffffffff81841382841385830485118282161615612d1957612d19612de3565b7f800000000000000000000000000000000000000000000000000000000000000084871286820588128184161615612d5357612d53612de3565b858712925087820587128484161615612d6e57612d6e612de3565b87850587128184161615612d8457612d84612de3565b505050929093029392505050565b6000816000190483118215151615612dac57612dac612de3565b500290565b600082821015612dc357612dc3612de3565b500390565b6000600019821415612ddc57612ddc612de3565b5060010190565b634e487b7160e01b600052601160045260246000fd5b634e487b7160e01b600052604160045260246000fdfea26469706673582212206ac1976eb7a0a64be7b69569f2135a7f73ba2d328542365cf0c14b18a2fb493064736f6c63430008000033",
  "deployedBytecode": "0x608060405234801561001057600080fd5b50600436106100df5760003560e01c806372799c0c1161008c5780639012c4a8116100665780639012c4a8146101da578063d48bfca7146101ed578063db8d55f114610200578063f2fde38b14610208576100df565b806372799c0c146101915780638da5cb5b146101a45780638e811893146101b9576100df565b8063619a0d62116100bd578063619a0d62146101445780636e9105e414610168578063715018a614610189576100df565b8063089941cf146100e457806308d1aa631461010f5780635ed8bda514610124575b600080fd5b6100f76100f236600461225a565b61021b565b60405161010693929190612a90565b60405180910390f35b61012261011d3660046122eb565b610289565b005b610137610132366004612295565b6103e5565b6040516101069190612a87565b61015761015236600461241a565b61044c565b6040516101069594939291906126fe565b61017b61017636600461225a565b610b5a565b6040516101069291906127c9565b610122610d3b565b61013761019f366004612369565b610d86565b6101ac611357565b60405161010691906125d8565b6101cc6101c7366004612432565b611366565b6040516101069291906126d0565b6101226101e836600461241a565b611827565b6101226101fb366004612239565b6118af565b610122611a1b565b610122610216366004612239565b611c09565b6000606080600061022b87611c7a565b9050600061023887611c7a565b9050600080600080600061024b8761044c565b94509450945094509450600080610266898989898989611366565b9150915061027582828f611d05565b9b5050505050505050505093509350939050565b610291611e80565b6001600160a01b03166102a2611357565b6001600160a01b0316146102d15760405162461bcd60e51b81526004016102c890612987565b60405180910390fd5b6001600160a01b03831660009081526003602052604090205460ff161561030a5760405162461bcd60e51b81526004016102c890612919565b6001600160a01b03831660008181526003602052604080822080547fffffffffffffffffffffffffffffffffffffffffffffffffffffffffffffff001660019081179091558054808201825592527fb10e2d527612073b26eecdfd717e6a320cf44b4afac2b0732d9fcbe2b7fa0cf690910180547fffffffffffffffffffffffff000000000000000000000000000000000000000016909217909155517f7b1869d3ff2bcab15b83cbc59ad58cfce8f9cbd573b3c6c58cc888fea1c39f93906103d890859085908590612639565b60405180910390a1505050565b6000806103f187611c7a565b905060006103fe87611c7a565b905060008060008061040f8661044c565b509350935093509350600080610429888888888888611366565b9150915061043a82828e8e8e610d86565b9e9d5050505050505050505050505050565b606080606080600060045467ffffffffffffffff81111561047d57634e487b7160e01b600052604160045260246000fd5b6040519080825280602002602001820160405280156104b057816020015b606081526020019060019003908161049b5790505b50945060045467ffffffffffffffff8111156104dc57634e487b7160e01b600052604160045260246000fd5b60405190808252806020026020018201604052801561050f57816020015b60608152602001906001900390816104fa5790505b50935060045467ffffffffffffffff81111561053b57634e487b7160e01b600052604160045260246000fd5b604051908082528060200260200182016040528015610564578160200160208202803683370190505b50925060045467ffffffffffffffff81111561059057634e487b7160e01b600052604160045260246000fd5b6040519080825280602002602001820160405280156105b9578160200160208202803683370190505b50915060005b600454811015610964577f7fffffffffffffffffffffffffffffffffffffffffffffffffffffffffffffff84828151811061060a57634e487b7160e01b600052603260045260246000fd5b60200260200101818152505060045467ffffffffffffffff81111561063f57634e487b7160e01b600052604160045260246000fd5b604051908082528060200260200182016040528015610668578160200160208202803683370190505b5086828151811061068957634e487b7160e01b600052603260045260246000fd5b602002602001018190525060045467ffffffffffffffff8111156106bd57634e487b7160e01b600052604160045260246000fd5b6040519080825280602002602001820160405280156106e6578160200160208202803683370190505b5085828151811061070757634e487b7160e01b600052603260045260246000fd5b60200260200101819052508681141561074957600084828151811061073c57634e487b7160e01b600052603260045260246000fd5b6020026020010181815250505b60005b6004548110156109515760006002828154811061077957634e487b7160e01b600052603260045260246000fd5b60009182526020822001546001600160a01b031691505b60045481101561093c5760008061085c84600285815481106107c257634e487b7160e01b600052603260045260246000fd5b9060005260206000200160009054906101000a90046001600160a01b0316866001600160a01b031663313ce5676040518163ffffffff1660e01b815260040160206040518083038186803b15801561081957600080fd5b505afa15801561082d573d6000803e3d6000fd5b505050506040513d601f19601f8201168201806040525081019061085191906124ec565b61017690600a612c09565b91509150808a868151811061088157634e487b7160e01b600052603260045260246000fd5b602002602001015184815181106108a857634e487b7160e01b600052603260045260246000fd5b6001600160a01b03909216602092830291909101909101526108d46108cf83600019612cda565b611e84565b8b86815181106108f457634e487b7160e01b600052603260045260246000fd5b6020026020010151848151811061091b57634e487b7160e01b600052603260045260246000fd5b6020026020010181815250505050808061093490612dc8565b915050610790565b5050808061094990612dc8565b91505061074c565b508061095c81612dc8565b9150506105bf565b50600160005b600454811080156109785750815b15610b4f57600091508061098b81612dc8565b91505060005b600454811015610b3b5760008682815181106109bd57634e487b7160e01b600052603260045260246000fd5b6020026020010151905060005b600454811015610b26578781815181106109f457634e487b7160e01b600052603260045260246000fd5b60200260200101518a8481518110610a1c57634e487b7160e01b600052603260045260246000fd5b60200260200101518281518110610a4357634e487b7160e01b600052603260045260246000fd5b602002602001015183610a569190612b17565b1215610b1457898381518110610a7c57634e487b7160e01b600052603260045260246000fd5b60200260200101518181518110610aa357634e487b7160e01b600052603260045260246000fd5b602002602001015182610ab69190612b17565b888281518110610ad657634e487b7160e01b600052603260045260246000fd5b6020026020010181815250506001945082878281518110610b0757634e487b7160e01b600052603260045260246000fd5b6020026020010181815250505b80610b1e81612dc8565b9150506109ca565b50508080610b3390612dc8565b915050610991565b50600454811415610b4a578192505b61096a565b505091939590929450565b6000806000805b600154811015610c8d57600060018281548110610b8e57634e487b7160e01b600052603260045260246000fd5b6000918252602090912001546040517fc515ee230000000000000000000000000000000000000000000000000000000081526001600160a01b039091169063c515ee2390610be4908b908b908b906004016125ec565b60206040518083038186803b158015610bfc57600080fd5b505afa158015610c10573d6000803e3d6000fd5b505050506040513d601f19601f82011682018060405250810190610c349190612402565b905082811115610c7a5780925060018281548110610c6257634e487b7160e01b600052603260045260246000fd5b6000918252602090912001546001600160a01b031693505b5080610c8581612dc8565b915050610b61565b506040517fed72480400000000000000000000000000000000000000000000000000000000815273__$d6e5c99d87b2345c74da754aa234a52975$__9063ed72480490610ce09087908590600401612abb565b60206040518083038186803b158015610cf857600080fd5b505af4158015610d0c573d6000803e3d6000fd5b505050506040513d601f19601f82011682018060405250810190610d309190612402565b925050935093915050565b610d43611e80565b6001600160a01b0316610d54611357565b6001600160a01b031614610d7a5760405162461bcd60e51b81526004016102c890612987565b610d846000611f4c565b565b60006001865111610da95760405162461bcd60e51b81526004016102c890612a2a565b60018651610db79190612db1565b855114610dd65760405162461bcd60e51b81526004016102c8906128e2565b600086600081518110610df957634e487b7160e01b600052603260045260246000fd5b60200260200101519050806001600160a01b03166323b872dd3330886040518463ffffffff1660e01b8152600401610e33939291906125ec565b602060405180830381600087803b158015610e4d57600080fd5b505af1158015610e61573d6000803e3d6000fd5b505050506040513d601f19601f82011682018060405250810190610e8591906123e2565b610ea15760405162461bcd60e51b81526004016102c8906128ab565b84915060005b86518110156111b257878181518110610ed057634e487b7160e01b600052603260045260246000fd5b60200260200101519150600088826001610eea9190612b8b565b81518110610f0857634e487b7160e01b600052603260045260246000fd5b602002602001015190506000816001600160a01b03166370a08231306040518263ffffffff1660e01b8152600401610f4091906125d8565b60206040518083038186803b158015610f5857600080fd5b505afa158015610f6c573d6000803e3d6000fd5b505050506040513d601f19601f82011682018060405250810190610f909190612402565b90506000898481518110610fb457634e487b7160e01b600052603260045260246000fd5b60200260200101519050846001600160a01b031663095ea7b382886040518363ffffffff1660e01b8152600401610fec929190612696565b602060405180830381600087803b15801561100657600080fd5b505af115801561101a573d6000803e3d6000fd5b505050506040513d601f19601f8201168201806040525081019061103e91906123e2565b61105a5760405162461bcd60e51b81526004016102c890612950565b6040517ffe0291560000000000000000000000000000000000000000000000000000000081526001600160a01b0382169063fe029156906110a690889087908b90600090600401612610565b602060405180830381600087803b1580156110c057600080fd5b505af11580156110d4573d6000803e3d6000fd5b505050506040513d601f19601f820116820180604052508101906110f89190612402565b506040517f70a0823100000000000000000000000000000000000000000000000000000000815282906001600160a01b038516906370a08231906111409030906004016125d8565b60206040518083038186803b15801561115857600080fd5b505afa15801561116c573d6000803e3d6000fd5b505050506040513d601f19601f820116820180604052508101906111909190612402565b61119a9190612db1565b955050505080806111aa90612dc8565b915050610ea7565b506000600654600554846111c69190612d92565b6111d09190612ba3565b90506111dc8184612db1565b9250848310156111fe5760405162461bcd60e51b81526004016102c890612817565b876001895161120d9190612db1565b8151811061122b57634e487b7160e01b600052603260045260246000fd5b60200260200101516001600160a01b031663a9059cbb85856040518363ffffffff1660e01b8152600401611260929190612696565b602060405180830381600087803b15801561127a57600080fd5b505af115801561128e573d6000803e3d6000fd5b505050506040513d601f19601f820116820180604052508101906112b291906123e2565b507ffa2dda1cc1b86e41239702756b13effbc1a092b5c57e3ad320fbe4f3b13fe235886000815181106112f557634e487b7160e01b600052603260045260246000fd5b60200260200101518960018b5161130c9190612db1565b8151811061132a57634e487b7160e01b600052603260045260246000fd5b602002602001015188866040516113449493929190612610565b60405180910390a1505095945050505050565b6000546001600160a01b031690565b60608060045467ffffffffffffffff81111561139257634e487b7160e01b600052604160045260246000fd5b6040519080825280602002602001820160405280156113bb578160200160208202803683370190505b50915060045467ffffffffffffffff8111156113e757634e487b7160e01b600052604160045260246000fd5b604051908082528060200260200182016040528015611410578160200160208202803683370190505b5090508660005b89821461158457600454811061143f5760405162461bcd60e51b81526004016102c8906129bc565b600085838151811061146157634e487b7160e01b600052603260045260246000fd5b602002602001015190506002838154811061148c57634e487b7160e01b600052603260045260246000fd5b9060005260206000200160009054906101000a90046001600160a01b03168583815181106114ca57634e487b7160e01b600052603260045260246000fd5b60200260200101906001600160a01b031690816001600160a01b03168152505087818151811061150a57634e487b7160e01b600052603260045260246000fd5b6020026020010151838151811061153157634e487b7160e01b600052603260045260246000fd5b602002602001015184838061154590612dc8565b94508151811061156557634e487b7160e01b600052603260045260246000fd5b6001600160a01b03909216602092830291909101909101529150611417565b60028a815481106115a557634e487b7160e01b600052603260045260246000fd5b6000918252602090912001546001600160a01b031684826115c581612dc8565b9350815181106115e557634e487b7160e01b600052603260045260246000fd5b60200260200101906001600160a01b031690816001600160a01b03168152505060005b611613600283612ba3565b811161181957600085828151811061163b57634e487b7160e01b600052603260045260246000fd5b60200260200101519050858287516116539190612db1565b8151811061167157634e487b7160e01b600052603260045260246000fd5b602002602001015186838151811061169957634e487b7160e01b600052603260045260246000fd5b60200260200101906001600160a01b031690816001600160a01b03168152505080868388516116c89190612db1565b815181106116e657634e487b7160e01b600052603260045260246000fd5b60200260200101906001600160a01b031690816001600160a01b031681525050600285516117149190612ba3565b82116118065784828151811061173a57634e487b7160e01b600052603260045260246000fd5b60200260200101519050848286516117529190612db1565b8151811061177057634e487b7160e01b600052603260045260246000fd5b602002602001015185838151811061179857634e487b7160e01b600052603260045260246000fd5b60200260200101906001600160a01b031690816001600160a01b03168152505080858387516117c79190612db1565b815181106117e557634e487b7160e01b600052603260045260246000fd5b60200260200101906001600160a01b031690816001600160a01b0316815250505b508061181181612dc8565b915050611608565b505050965096945050505050565b61182f611e80565b6001600160a01b0316611840611357565b6001600160a01b0316146118665760405162461bcd60e51b81526004016102c890612987565b7fcf5b6c438b64611d8ee0722509d7ad5149d4f779f0b29bc845152f0d89e42e1961188f611357565b600554836040516118a2939291906126af565b60405180910390a1600555565b6118b7611e80565b6001600160a01b03166118c8611357565b6001600160a01b0316146118ee5760405162461bcd60e51b81526004016102c890612987565b60005b60025481101561196b57816001600160a01b03166002828154811061192657634e487b7160e01b600052603260045260246000fd5b6000918252602090912001546001600160a01b031614156119595760405162461bcd60e51b81526004016102c8906129f3565b8061196381612dc8565b9150506118f1565b506002805460018101825560009182527f405787fa12a823e0f2b7631cc41b3ba8828b3321ca811111fa75cd3aa3bb5ace0180547fffffffffffffffffffffffff0000000000000000000000000000000000000000166001600160a01b03841617905560048054916119dc83612dc8565b91905055507f784c8f4dbf0ffedd6e72c76501c545a70f8b203b30a26ce542bf92ba87c248a481604051611a1091906125d8565b60405180910390a150565b611a23611e80565b6001600160a01b0316611a34611357565b6001600160a01b031614611a5a5760405162461bcd60e51b81526004016102c890612987565b60005b600454811015611bc857600060028281548110611a8a57634e487b7160e01b600052603260045260246000fd5b6000918252602090912001546001600160a01b031690508063a9059cbb611aaf611357565b6040517f70a082310000000000000000000000000000000000000000000000000000000081526001600160a01b038516906370a0823190611af49030906004016125d8565b60206040518083038186803b158015611b0c57600080fd5b505afa158015611b20573d6000803e3d6000fd5b505050506040513d601f19601f82011682018060405250810190611b449190612402565b6040518363ffffffff1660e01b8152600401611b61929190612696565b602060405180830381600087803b158015611b7b57600080fd5b505af1158015611b8f573d6000803e3d6000fd5b505050506040513d601f19601f82011682018060405250810190611bb391906123e2565b50508080611bc090612dc8565b915050611a5d565b507fc708bc9126baf78945ae1d05c03aa332ca0460db0e59169024d96f0188f411d1611bf2611357565b604051611bff91906125d8565b60405180910390a1565b611c11611e80565b6001600160a01b0316611c22611357565b6001600160a01b031614611c485760405162461bcd60e51b81526004016102c890612987565b6001600160a01b038116611c6e5760405162461bcd60e51b81526004016102c89061284e565b611c7781611f4c565b50565b6000805b600454811015611ce757826001600160a01b031660028281548110611cb357634e487b7160e01b600052603260045260246000fd5b6000918252602090912001546001600160a01b03161415611cd5579050611d00565b80611cdf81612dc8565b915050611c7e565b5060405162461bcd60e51b81526004016102c8906127e0565b919050565b60006001845111611d285760405162461bcd60e51b81526004016102c890612a2a565b60018451611d369190612db1565b835114611d555760405162461bcd60e51b81526004016102c8906128e2565b508060005b8351811015611e7857838181518110611d8357634e487b7160e01b600052603260045260246000fd5b60200260200101516001600160a01b031663c515ee23868381518110611db957634e487b7160e01b600052603260045260246000fd5b602002602001015187846001611dcf9190612b8b565b81518110611ded57634e487b7160e01b600052603260045260246000fd5b6020026020010151856040518463ffffffff1660e01b8152600401611e14939291906125ec565b60206040518083038186803b158015611e2c57600080fd5b505afa158015611e40573d6000803e3d6000fd5b505050506040513d601f19601f82011682018060405250810190611e649190612402565b915080611e7081612dc8565b915050611d5a565b509392505050565b3390565b6000808213611e9257600080fd5b6000670de0b6b3a76400008312611eab57506001611ec5565b6000199050826ec097ce7bc90715b34b9f10000000000492505b6000611eda670de0b6b3a76400008505611fb4565b670de0b6b3a7640000808202945090915084821d90811415611efe57505002611d00565b6706f05b59d3b200005b6000811315611f4357670de0b6b3a7640000828002059150671bc16d674ec800008212611f3b579384019360019190911d905b60011d611f08565b50505002919050565b600080546001600160a01b038381167fffffffffffffffffffffffff0000000000000000000000000000000000000000831681178455604051919092169283917f8be0079c531659141344cd1fd0a4f28419497f9722a3daafe3b4186f6b6457e09190a35050565b60007001000000000000000000000000000000008210611fe157608091821c91611fde9082612b8b565b90505b68010000000000000000821061200457604091821c916120019082612b8b565b90505b640100000000821061202357602091821c916120209082612b8b565b90505b62010000821061204057601091821c9161203d9082612b8b565b90505b610100821061205c57600891821c916120599082612b8b565b90505b6010821061207757600491821c916120749082612b8b565b90505b6004821061209257600291821c9161208f9082612b8b565b90505b60028210611d00576120a5600182612b8b565b92915050565b80356001600160a01b0381168114611d0057600080fd5b600082601f8301126120d2578081fd5b813560206120e76120e283612af3565b612ac9565b8281528181019085830183850287018401881015612103578586fd5b855b8581101561212857612116826120ab565b84529284019290840190600101612105565b5090979650505050505050565b600082601f830112612145578081fd5b813560206121556120e283612af3565b82815281810190858301855b8581101561212857612178898684358b01016120c2565b84529284019290840190600101612161565b600082601f83011261219a578081fd5b813560206121aa6120e283612af3565b82815281810190858301855b85811015612128576121cd898684358b01016121df565b845292840192908401906001016121b6565b600082601f8301126121ef578081fd5b813560206121ff6120e283612af3565b828152818101908583018385028701840188101561221b578586fd5b855b858110156121285781358452928401929084019060010161221d565b60006020828403121561224a578081fd5b612253826120ab565b9392505050565b60008060006060848603121561226e578182fd5b612277846120ab565b9250612285602085016120ab565b9150604084013590509250925092565b600080600080600060a086880312156122ac578081fd5b6122b5866120ab565b94506122c3602087016120ab565b935060408601359250606086013591506122df608087016120ab565b90509295509295909350565b6000806000604084860312156122ff578283fd5b612308846120ab565b9250602084013567ffffffffffffffff80821115612324578384fd5b818601915086601f830112612337578384fd5b813581811115612345578485fd5b876020828501011115612356578485fd5b6020830194508093505050509250925092565b600080600080600060a08688031215612380578283fd5b853567ffffffffffffffff80821115612397578485fd5b6123a389838a016120c2565b965060208801359150808211156123b8578485fd5b506123c5888289016120c2565b94505060408601359250606086013591506122df608087016120ab565b6000602082840312156123f3578081fd5b81518015158114612253578182fd5b600060208284031215612413578081fd5b5051919050565b60006020828403121561242b578081fd5b5035919050565b60008060008060008060c0878903121561244a578384fd5b8635955060208701359450604087013567ffffffffffffffff8082111561246f578586fd5b61247b8a838b0161218a565b95506060890135915080821115612490578283fd5b61249c8a838b01612135565b945060808901359150808211156124b1578283fd5b6124bd8a838b016121df565b935060a08901359150808211156124d2578283fd5b506124df89828a016121df565b9150509295509295509295565b6000602082840312156124fd578081fd5b815160ff81168114612253578182fd5b6000815180845260208085019450808401835b838110156125455781516001600160a01b031687529582019590820190600101612520565b509495945050505050565b6000815180845260208085018081965082840281019150828601855b8581101561259657828403895261258484835161250d565b9885019893509084019060010161256c565b5091979650505050505050565b6000815180845260208085019450808401835b83811015612545578151875295820195908201906001016125b6565b15159052565b6001600160a01b0391909116815260200190565b6001600160a01b039384168152919092166020820152604081019190915260600190565b6001600160a01b0394851681529290931660208301526040820152606081019190915260800190565b60006001600160a01b03851682526040602083015282604083015282846060840137818301606090810191909152601f9092017fffffffffffffffffffffffffffffffffffffffffffffffffffffffffffffffe016010192915050565b6001600160a01b03929092168252602082015260400190565b6001600160a01b039390931683526020830191909152604082015260600190565b6000604082526126e3604083018561250d565b82810360208401526126f5818561250d565b95945050505050565b600060a0820160a0835280885180835260c0850191506020925060c0838202860101838b01855b83811015612771577fffffffffffffffffffffffffffffffffffffffffffffffffffffffffffffff4088840301855261275f8383516125a3565b94860194925090850190600101612725565b505085810384870152612784818b612550565b9350505050828103604084015261279b81876125a3565b905082810360608401526127af81866125a3565b9150506127bf60808301846125d2565b9695505050505050565b9182526001600160a01b0316602082015260400190565b60208082526016908201527f546f6b656e206973206e6f7420737570706f7274656400000000000000000000604082015260600190565b60208082526015908201527f536c6970706167652077617320746f6f20686967680000000000000000000000604082015260600190565b60208082526026908201527f4f776e61626c653a206e6577206f776e657220697320746865207a65726f206160408201527f6464726573730000000000000000000000000000000000000000000000000000606082015260800190565b6020808252600f908201527f5472616e73666572206661696c65640000000000000000000000000000000000604082015260600190565b6020808252601e908201527f45786368616e6765207061746820696e636f7272656374206c656e6774680000604082015260600190565b60208082526019908201527f4445582068617320616c72656164206265656e20616464656400000000000000604082015260600190565b6020808252600f908201527f417070726f76616c206661696c65640000000000000000000000000000000000604082015260600190565b6020808252818101527f4f776e61626c653a2063616c6c6572206973206e6f7420746865206f776e6572604082015260600190565b6020808252600e908201527f4e6f207061746820657869737473000000000000000000000000000000000000604082015260600190565b60208082526013908201527f546f6b656e20616c726561647920616464656400000000000000000000000000604082015260600190565b60208082526024908201527f50617468206d75737420636f6e7461696e2061746c656173742074776f20746f60408201527f6b656e7300000000000000000000000000000000000000000000000000000000606082015260800190565b90815260200190565b600084825260606020830152612aa9606083018561250d565b82810360408401526127bf818561250d565b918252602082015260400190565b60405181810167ffffffffffffffff81118282101715612aeb57612aeb612df9565b604052919050565b600067ffffffffffffffff821115612b0d57612b0d612df9565b5060209081020190565b6000808212827f7fffffffffffffffffffffffffffffffffffffffffffffffffffffffffffffff03841381151615612b5157612b51612de3565b827f8000000000000000000000000000000000000000000000000000000000000000038412811615612b8557612b85612de3565b50500190565b60008219821115612b9e57612b9e612de3565b500190565b600082612bbe57634e487b7160e01b81526012600452602481fd5b500490565b80825b6001808611612bd55750612c00565b818704821115612be757612be7612de3565b80861615612bf457918102915b9490941c938002612bc6565b94509492505050565b600061225360001960ff851684600082612c2557506001612253565b81612c3257506000612253565b8160018114612c485760028114612c5257612c7f565b6001915050612253565b60ff841115612c6357612c63612de3565b6001841b915084821115612c7957612c79612de3565b50612253565b5060208310610133831016604e8410600b8410161715612cb2575081810a83811115612cad57612cad612de3565b612253565b612cbf8484846001612bc3565b808604821115612cd157612cd1612de3565b02949350505050565b60007f7fffffffffffffffffffffffffffffffffffffffffffffffffffffffffffffff81841382841385830485118282161615612d1957612d19612de3565b7f800000000000000000000000000000000000000000000000000000000000000084871286820588128184161615612d5357612d53612de3565b858712925087820587128484161615612d6e57612d6e612de3565b87850587128184161615612d8457612d84612de3565b505050929093029392505050565b6000816000190483118215151615612dac57612dac612de3565b500290565b600082821015612dc357612dc3612de3565b500390565b6000600019821415612ddc57612ddc612de3565b5060010190565b634e487b7160e01b600052601160045260246000fd5b634e487b7160e01b600052604160045260246000fdfea26469706673582212206ac1976eb7a0a64be7b69569f2135a7f73ba2d328542365cf0c14b18a2fb493064736f6c63430008000033",
  "libraries": {
    "OpenMath": "0x8D8D982DFC974A9F81F68DCfA1E42be540673877"
  },
  "devdoc": {
    "kind": "dev",
    "methods": {
      "owner()": {
        "details": "Returns the address of the current owner."
      },
      "renounceOwnership()": {
        "details": "Leaves the contract without owner. It will not be possible to call `onlyOwner` functions anymore. Can only be called by the current owner. NOTE: Renouncing ownership will leave the contract without an owner, thereby removing any functionality that is only available to the owner."
      },
      "transferOwnership(address)": {
        "details": "Transfers ownership of the contract to a new account (`newOwner`). Can only be called by the current owner."
      }
    },
    "version": 1
  },
  "userdoc": {
    "kind": "user",
    "methods": {},
    "version": 1
  },
  "storageLayout": {
    "storage": [
      {
        "astId": 7,
        "contract": "contracts/Minima.sol:Minima",
        "label": "_owner",
        "offset": 0,
        "slot": "0",
        "type": "t_address"
      },
      {
        "astId": 1589,
        "contract": "contracts/Minima.sol:Minima",
        "label": "dexs",
        "offset": 0,
        "slot": "1",
        "type": "t_array(t_address)dyn_storage"
      },
      {
        "astId": 1592,
        "contract": "contracts/Minima.sol:Minima",
        "label": "supportedTokens",
        "offset": 0,
        "slot": "2",
        "type": "t_array(t_address)dyn_storage"
      },
      {
        "astId": 1596,
        "contract": "contracts/Minima.sol:Minima",
        "label": "dexKnown",
        "offset": 0,
        "slot": "3",
        "type": "t_mapping(t_address,t_bool)"
      },
      {
        "astId": 1598,
        "contract": "contracts/Minima.sol:Minima",
        "label": "numTokens",
        "offset": 0,
        "slot": "4",
        "type": "t_uint256"
      },
      {
        "astId": 1606,
        "contract": "contracts/Minima.sol:Minima",
        "label": "fee",
        "offset": 0,
        "slot": "5",
        "type": "t_uint256"
      },
      {
        "astId": 1611,
        "contract": "contracts/Minima.sol:Minima",
        "label": "FEE_DENOM",
        "offset": 0,
        "slot": "6",
        "type": "t_uint256"
      }
    ],
    "types": {
      "t_address": {
        "encoding": "inplace",
        "label": "address",
        "numberOfBytes": "20"
      },
      "t_array(t_address)dyn_storage": {
        "base": "t_address",
        "encoding": "dynamic_array",
        "label": "address[]",
        "numberOfBytes": "32"
      },
      "t_bool": {
        "encoding": "inplace",
        "label": "bool",
        "numberOfBytes": "1"
      },
      "t_mapping(t_address,t_bool)": {
        "encoding": "mapping",
        "key": "t_address",
        "label": "mapping(address => bool)",
        "numberOfBytes": "32",
        "value": "t_bool"
      },
      "t_uint256": {
        "encoding": "inplace",
        "label": "uint256",
        "numberOfBytes": "32"
      }
    }
  }
}