{
  "address": "0x8545a455465e263FeFe6E049b9b233A545363efc",
  "abi": [
    {
      "anonymous": false,
      "inputs": [
        {
          "indexed": true,
          "internalType": "address",
          "name": "previousOwner",
          "type": "address"
        },
        {
          "indexed": true,
          "internalType": "address",
          "name": "newOwner",
          "type": "address"
        }
      ],
      "name": "OwnershipTransferred",
      "type": "event"
    },
    {
      "inputs": [
        {
          "internalType": "address",
          "name": "swapAddress",
          "type": "address"
        },
        {
          "internalType": "uint256",
          "name": "numTokens",
          "type": "uint256"
        }
      ],
      "name": "addSwapContract",
      "outputs": [],
      "stateMutability": "nonpayable",
      "type": "function"
    },
    {
      "inputs": [
        {
          "internalType": "address",
          "name": "tokenIn",
          "type": "address"
        },
        {
          "internalType": "address",
          "name": "tokenOut",
          "type": "address"
        },
        {
          "internalType": "uint256",
          "name": "amountIn",
          "type": "uint256"
        }
      ],
      "name": "getQuote",
      "outputs": [
        {
          "internalType": "uint256",
          "name": "",
          "type": "uint256"
        }
      ],
      "stateMutability": "view",
      "type": "function"
    },
    {
      "inputs": [
        {
          "internalType": "address",
          "name": "tokenFrom",
          "type": "address"
        },
        {
          "internalType": "address",
          "name": "tokenTo",
          "type": "address"
        }
      ],
      "name": "getTradeIndices",
      "outputs": [
        {
          "internalType": "uint256",
          "name": "tokenIndexFrom",
          "type": "uint256"
        },
        {
          "internalType": "uint256",
          "name": "tokenIndexTo",
          "type": "uint256"
        },
        {
          "internalType": "address",
          "name": "swapAddress",
          "type": "address"
        }
      ],
      "stateMutability": "view",
      "type": "function"
    },
    {
      "inputs": [],
      "name": "owner",
      "outputs": [
        {
          "internalType": "address",
          "name": "",
          "type": "address"
        }
      ],
      "stateMutability": "view",
      "type": "function"
    },
    {
      "inputs": [],
      "name": "renounceOwnership",
      "outputs": [],
      "stateMutability": "nonpayable",
      "type": "function"
    },
    {
      "inputs": [
        {
          "internalType": "address",
          "name": "tokenIn",
          "type": "address"
        },
        {
          "internalType": "address",
          "name": "tokenOut",
          "type": "address"
        },
        {
          "internalType": "uint256",
          "name": "amountIn",
          "type": "uint256"
        },
        {
          "internalType": "uint256",
          "name": "minAmountOut",
          "type": "uint256"
        }
      ],
      "name": "swap",
      "outputs": [
        {
          "internalType": "uint256",
          "name": "",
          "type": "uint256"
        }
      ],
      "stateMutability": "nonpayable",
      "type": "function"
    },
    {
      "inputs": [
        {
          "internalType": "address",
          "name": "",
          "type": "address"
        }
      ],
      "name": "swapContained",
      "outputs": [
        {
          "internalType": "bool",
          "name": "",
          "type": "bool"
        }
      ],
      "stateMutability": "view",
      "type": "function"
    },
    {
      "inputs": [
        {
          "internalType": "address",
          "name": "",
          "type": "address"
        },
        {
          "internalType": "address",
          "name": "",
          "type": "address"
        }
      ],
      "name": "tokenRoute",
      "outputs": [
        {
          "internalType": "address",
          "name": "",
          "type": "address"
        }
      ],
      "stateMutability": "view",
      "type": "function"
    },
    {
      "inputs": [
        {
          "internalType": "address",
          "name": "newOwner",
          "type": "address"
        }
      ],
      "name": "transferOwnership",
      "outputs": [],
      "stateMutability": "nonpayable",
      "type": "function"
    }
  ],
  "transactionHash": "0x8e72376c13326d01be1440a26e99f63a4cd28074ddb8764dfadf28d41ab8a835",
  "args": [],
  "solcInputHash": "20f2989410bc9d2a28920a8dd2b272d2",
  "bytecode": "0x608060405234801561001057600080fd5b5061002161001c610026565b61002a565b61007a565b3390565b600080546001600160a01b038381166001600160a01b0319831681178455604051919092169283917f8be0079c531659141344cd1fd0a4f28419497f9722a3daafe3b4186f6b6457e09190a35050565b610fe3806100896000396000f3fe608060405234801561001057600080fd5b50600436106100a35760003560e01c806393dc4ac611610076578063e3cc4bfa1161005b578063e3cc4bfa14610145578063f2fde38b14610158578063fe0291561461016b576100a3565b806393dc4ac614610105578063c515ee2314610125576100a3565b80632ba29f24146100a85780633d6f9f46146100d3578063715018a6146100f35780638da5cb5b146100fd575b600080fd5b6100bb6100b6366004610b9f565b61017e565b6040516100ca93929190610ea2565b60405180910390f35b6100e66100e1366004610b9f565b6102d6565b6040516100ca9190610ce0565b6100fb6102fc565b005b6100e6610350565b610118610113366004610b67565b61035f565b6040516100ca9190610d31565b610138610133366004610bd7565b610374565b6040516100ca9190610e99565b6100fb610153366004610c5c565b6103be565b6100fb610166366004610b67565b610713565b610138610179366004610c17565b610784565b6001600160a01b0380831660009081526001602090815260408083208585168452909152812054909182911680156102cf576040517f66c0bd2400000000000000000000000000000000000000000000000000000000815281906001600160a01b038216906366c0bd24906101f7908990600401610ce0565b60206040518083038186803b15801561020f57600080fd5b505afa158015610223573d6000803e3d6000fd5b505050506040513d601f19601f820116820180604052508101906102479190610cbf565b60ff169350806001600160a01b03166366c0bd24866040518263ffffffff1660e01b81526004016102789190610ce0565b60206040518083038186803b15801561029057600080fd5b505afa1580156102a4573d6000803e3d6000fd5b505050506040513d601f19601f820116820180604052508101906102c89190610cbf565b60ff169250505b9250925092565b60016020908152600092835260408084209091529082529020546001600160a01b031681565b610304610a53565b6001600160a01b0316610315610350565b6001600160a01b0316146103445760405162461bcd60e51b815260040161033b90610e2d565b60405180910390fd5b61034e6000610a57565b565b6000546001600160a01b031690565b60026020526000908152604090205460ff1681565b600080600080610384878761017e565b919450925090506001600160a01b0381166103a557600093505050506103b7565b6103b183838784610abf565b93505050505b9392505050565b6103c6610a53565b6001600160a01b03166103d7610350565b6001600160a01b0316146103fd5760405162461bcd60e51b815260040161033b90610e2d565b6001600160a01b03821660009081526002602052604090205460ff16156104365760405162461bcd60e51b815260040161033b90610d99565b6001600160a01b038216600090815260026020526040812080547fffffffffffffffffffffffffffffffffffffffffffffffffffffffffffffff0016600117905582908267ffffffffffffffff8111156104b9577f4e487b7100000000000000000000000000000000000000000000000000000000600052604160045260246000fd5b6040519080825280602002602001820160405280156104e2578160200160208202803683370190505b50905060005b838110156105e8576040517f82b866000000000000000000000000000000000000000000000000000000000081526001600160a01b038416906382b8660090610535908490600401610ec1565b60206040518083038186803b15801561054d57600080fd5b505afa158015610561573d6000803e3d6000fd5b505050506040513d601f19601f820116820180604052508101906105859190610b83565b8282815181106105be577f4e487b7100000000000000000000000000000000000000000000000000000000600052603260045260246000fd5b6001600160a01b0390921660209283029190910190910152806105e081610f30565b9150506104e8565b5060005b8381101561070c57600082828151811061062f577f4e487b7100000000000000000000000000000000000000000000000000000000600052603260045260246000fd5b6020026020010151905060005b858110156106f7578281146106e5576000848281518110610686577f4e487b7100000000000000000000000000000000000000000000000000000000600052603260045260246000fd5b6020908102919091018101516001600160a01b038581166000908152600184526040808220938316825292909352912080547fffffffffffffffffffffffff000000000000000000000000000000000000000016918a16919091179055505b806106ef81610f30565b91505061063c565b5050808061070490610f30565b9150506105ec565b5050505050565b61071b610a53565b6001600160a01b031661072c610350565b6001600160a01b0316146107525760405162461bcd60e51b815260040161033b90610e2d565b6001600160a01b0381166107785760405162461bcd60e51b815260040161033b90610d3c565b61078181610a57565b50565b600080600080610794888861017e565b919450925090506001600160a01b0381166107c15760405162461bcd60e51b815260040161033b90610e62565b6040517f23b872dd000000000000000000000000000000000000000000000000000000008152819042906001600160a01b038b16906323b872dd9061080e90339030908d90600401610cf4565b602060405180830381600087803b15801561082857600080fd5b505af115801561083c573d6000803e3d6000fd5b505050506040513d601f19601f820116820180604052508101906108609190610c87565b506040517f095ea7b30000000000000000000000000000000000000000000000000000000081526001600160a01b038b169063095ea7b3906108a89086908c90600401610d18565b602060405180830381600087803b1580156108c257600080fd5b505af11580156108d6573d6000803e3d6000fd5b505050506040513d601f19601f820116820180604052508101906108fa9190610c87565b6109165760405162461bcd60e51b815260040161033b90610df6565b60006001600160a01b038316639169558687878c8c61093688601e610f18565b6040518663ffffffff1660e01b8152600401610956959493929190610eed565b602060405180830381600087803b15801561097057600080fd5b505af1158015610984573d6000803e3d6000fd5b505050506040513d601f19601f820116820180604052508101906109a89190610ca7565b6040517fa9059cbb0000000000000000000000000000000000000000000000000000000081529091506001600160a01b038b169063a9059cbb906109f29033908590600401610d18565b602060405180830381600087803b158015610a0c57600080fd5b505af1158015610a20573d6000803e3d6000fd5b505050506040513d601f19601f82011682018060405250810190610a449190610c87565b509a9950505050505050505050565b3390565b600080546001600160a01b038381167fffffffffffffffffffffffff0000000000000000000000000000000000000000831681178455604051919092169283917f8be0079c531659141344cd1fd0a4f28419497f9722a3daafe3b4186f6b6457e09190a35050565b6040517fa95b089f00000000000000000000000000000000000000000000000000000000815260009082906001600160a01b0382169063a95b089f90610b0d90899089908990600401610ecf565b60206040518083038186803b158015610b2557600080fd5b505afa158015610b39573d6000803e3d6000fd5b505050506040513d601f19601f82011682018060405250810190610b5d9190610ca7565b9695505050505050565b600060208284031215610b78578081fd5b81356103b781610f98565b600060208284031215610b94578081fd5b81516103b781610f98565b60008060408385031215610bb1578081fd5b8235610bbc81610f98565b91506020830135610bcc81610f98565b809150509250929050565b600080600060608486031215610beb578081fd5b8335610bf681610f98565b92506020840135610c0681610f98565b929592945050506040919091013590565b60008060008060808587031215610c2c578081fd5b8435610c3781610f98565b93506020850135610c4781610f98565b93969395505050506040820135916060013590565b60008060408385031215610c6e578182fd5b8235610c7981610f98565b946020939093013593505050565b600060208284031215610c98578081fd5b815180151581146103b7578182fd5b600060208284031215610cb8578081fd5b5051919050565b600060208284031215610cd0578081fd5b815160ff811681146103b7578182fd5b6001600160a01b0391909116815260200190565b6001600160a01b039384168152919092166020820152604081019190915260600190565b6001600160a01b03929092168252602082015260400190565b901515815260200190565b60208082526026908201527f4f776e61626c653a206e6577206f776e657220697320746865207a65726f206160408201527f6464726573730000000000000000000000000000000000000000000000000000606082015260800190565b60208082526025908201527f5377617020636f6e74726163742068617320616c7265616479206265656e206160408201527f6464656421000000000000000000000000000000000000000000000000000000606082015260800190565b6020808252600f908201527f417070726f76616c206661696c65640000000000000000000000000000000000604082015260600190565b6020808252818101527f4f776e61626c653a2063616c6c6572206973206e6f7420746865206f776e6572604082015260600190565b6020808252601c908201527f5377617020636f6e747261637420646f6573206e6f7420657869737400000000604082015260600190565b90815260200190565b92835260208301919091526001600160a01b0316604082015260600190565b60ff91909116815260200190565b60ff9384168152919092166020820152604081019190915260600190565b60ff958616815293909416602084015260408301919091526060820152608081019190915260a00190565b60008219821115610f2b57610f2b610f69565b500190565b60007fffffffffffffffffffffffffffffffffffffffffffffffffffffffffffffffff821415610f6257610f62610f69565b5060010190565b7f4e487b7100000000000000000000000000000000000000000000000000000000600052601160045260246000fd5b6001600160a01b038116811461078157600080fdfea264697066735822122032d73c443b4e2aa47375f83a2590b41eed4cb575c1c58d8f19d49063e23e393764736f6c63430008000033",
  "devdoc": {
    "kind": "dev",
    "methods": {
      "owner()": {
        "details": "Returns the address of the current owner."
      },
      "renounceOwnership()": {
        "details": "Leaves the contract without owner. It will not be possible to call `onlyOwner` functions anymore. Can only be called by the current owner. NOTE: Renouncing ownership will leave the contract without an owner, thereby removing any functionality that is only available to the owner."
      },
      "transferOwnership(address)": {
        "details": "Transfers ownership of the contract to a new account (`newOwner`). Can only be called by the current owner."
      }
    },
    "version": 1
  },
  "userdoc": {
    "kind": "user",
    "methods": {},
    "version": 1
  },
  "storageLayout": {
    "storage": [
      {
        "astId": 7,
        "contract": "contracts/AMMs/MobiusWrapper.sol:MobiusWrapper",
        "label": "_owner",
        "offset": 0,
        "slot": "0",
        "type": "t_address"
      },
      {
        "astId": 857,
        "contract": "contracts/AMMs/MobiusWrapper.sol:MobiusWrapper",
        "label": "tokenRoute",
        "offset": 0,
        "slot": "1",
        "type": "t_mapping(t_address,t_mapping(t_address,t_address))"
      },
      {
        "astId": 861,
        "contract": "contracts/AMMs/MobiusWrapper.sol:MobiusWrapper",
        "label": "swapContained",
        "offset": 0,
        "slot": "2",
        "type": "t_mapping(t_address,t_bool)"
      }
    ],
    "types": {
      "t_address": {
        "encoding": "inplace",
        "label": "address",
        "numberOfBytes": "20"
      },
      "t_bool": {
        "encoding": "inplace",
        "label": "bool",
        "numberOfBytes": "1"
      },
      "t_mapping(t_address,t_address)": {
        "encoding": "mapping",
        "key": "t_address",
        "label": "mapping(address => address)",
        "numberOfBytes": "32",
        "value": "t_address"
      },
      "t_mapping(t_address,t_bool)": {
        "encoding": "mapping",
        "key": "t_address",
        "label": "mapping(address => bool)",
        "numberOfBytes": "32",
        "value": "t_bool"
      },
      "t_mapping(t_address,t_mapping(t_address,t_address))": {
        "encoding": "mapping",
        "key": "t_address",
        "label": "mapping(address => mapping(address => address))",
        "numberOfBytes": "32",
        "value": "t_mapping(t_address,t_address)"
      }
    }
  }
}