{
  "address": "0xE954B305326378838421739444DCCfC9d4fe54f0",
  "abi": [
    {
      "anonymous": false,
      "inputs": [
        {
          "indexed": true,
          "internalType": "address",
          "name": "previousOwner",
          "type": "address"
        },
        {
          "indexed": true,
          "internalType": "address",
          "name": "newOwner",
          "type": "address"
        }
      ],
      "name": "OwnershipTransferred",
      "type": "event"
    },
    {
      "inputs": [
        {
          "internalType": "address",
          "name": "swapAddress",
          "type": "address"
        },
        {
          "internalType": "uint256",
          "name": "numTokens",
          "type": "uint256"
        }
      ],
      "name": "addSwapContract",
      "outputs": [],
      "stateMutability": "nonpayable",
      "type": "function"
    },
    {
      "inputs": [
        {
          "internalType": "address",
          "name": "tokenIn",
          "type": "address"
        },
        {
          "internalType": "address",
          "name": "tokenOut",
          "type": "address"
        },
        {
          "internalType": "uint256",
          "name": "amountIn",
          "type": "uint256"
        }
      ],
      "name": "getQuote",
      "outputs": [
        {
          "internalType": "uint256",
          "name": "",
          "type": "uint256"
        }
      ],
      "stateMutability": "view",
      "type": "function"
    },
    {
      "inputs": [
        {
          "internalType": "address",
          "name": "tokenFrom",
          "type": "address"
        },
        {
          "internalType": "address",
          "name": "tokenTo",
          "type": "address"
        }
      ],
      "name": "getTradeIndices",
      "outputs": [
        {
          "internalType": "uint256",
          "name": "tokenIndexFrom",
          "type": "uint256"
        },
        {
          "internalType": "uint256",
          "name": "tokenIndexTo",
          "type": "uint256"
        },
        {
          "internalType": "address",
          "name": "swapAddress",
          "type": "address"
        }
      ],
      "stateMutability": "view",
      "type": "function"
    },
    {
      "inputs": [],
      "name": "owner",
      "outputs": [
        {
          "internalType": "address",
          "name": "",
          "type": "address"
        }
      ],
      "stateMutability": "view",
      "type": "function"
    },
    {
      "inputs": [],
      "name": "renounceOwnership",
      "outputs": [],
      "stateMutability": "nonpayable",
      "type": "function"
    },
    {
      "inputs": [
        {
          "internalType": "address",
          "name": "tokenIn",
          "type": "address"
        },
        {
          "internalType": "address",
          "name": "tokenOut",
          "type": "address"
        },
        {
          "internalType": "uint256",
          "name": "amountIn",
          "type": "uint256"
        },
        {
          "internalType": "uint256",
          "name": "minAmountOut",
          "type": "uint256"
        }
      ],
      "name": "swap",
      "outputs": [
        {
          "internalType": "uint256",
          "name": "",
          "type": "uint256"
        }
      ],
      "stateMutability": "nonpayable",
      "type": "function"
    },
    {
      "inputs": [
        {
          "internalType": "address",
          "name": "newOwner",
          "type": "address"
        }
      ],
      "name": "transferOwnership",
      "outputs": [],
      "stateMutability": "nonpayable",
      "type": "function"
    }
  ],
  "transactionHash": "0xeb06065ba776973aa356a6ee9d82f5b2d5aebe280500d02caad44b3580a3bfe5",
  "args": [],
  "solcInputHash": "012008fbf0d13dacd607bc58cc486cfe",
  "bytecode": "0x608060405234801561001057600080fd5b5061002161001c610026565b61002a565b61007a565b3390565b600080546001600160a01b038381166001600160a01b0319831681178455604051919092169283917f8be0079c531659141344cd1fd0a4f28419497f9722a3daafe3b4186f6b6457e09190a35050565b610f0b806100896000396000f3fe608060405234801561001057600080fd5b506004361061007d5760003560e01c8063c515ee231161005b578063c515ee23146100cc578063e3cc4bfa146100ec578063f2fde38b146100ff578063fe029156146101125761007d565b80632ba29f2414610082578063715018a6146100ad5780638da5cb5b146100b7575b600080fd5b610095610090366004610ad2565b610125565b6040516100a493929190610dca565b60405180910390f35b6100b561027d565b005b6100bf6102d1565b6040516100a49190610c13565b6100df6100da366004610b0a565b6102e0565b6040516100a49190610dc1565b6100b56100fa366004610b8f565b61032a565b6100b561010d366004610a9a565b610646565b6100df610120366004610b4a565b6106b7565b6001600160a01b038083166000908152600260209081526040808320858516845290915281205490918291168015610276576040517f66c0bd2400000000000000000000000000000000000000000000000000000000815281906001600160a01b038216906366c0bd249061019e908990600401610c13565b60206040518083038186803b1580156101b657600080fd5b505afa1580156101ca573d6000803e3d6000fd5b505050506040513d601f19601f820116820180604052508101906101ee9190610bf2565b60ff169350806001600160a01b03166366c0bd24866040518263ffffffff1660e01b815260040161021f9190610c13565b60206040518083038186803b15801561023757600080fd5b505afa15801561024b573d6000803e3d6000fd5b505050506040513d601f19601f8201168201806040525081019061026f9190610bf2565b60ff169250505b9250925092565b610285610986565b6001600160a01b03166102966102d1565b6001600160a01b0316146102c55760405162461bcd60e51b81526004016102bc90610d55565b60405180910390fd5b6102cf600061098a565b565b6000546001600160a01b031690565b6000806000806102f08787610125565b919450925090506001600160a01b0381166103115760009350505050610323565b61031d838387846109f2565b93505050505b9392505050565b610332610986565b6001600160a01b03166103436102d1565b6001600160a01b0316146103695760405162461bcd60e51b81526004016102bc90610d55565b6001600160a01b03821660009081526003602052604090205460ff16156103a25760405162461bcd60e51b81526004016102bc90610cc1565b8160008267ffffffffffffffff8111156103e5577f4e487b7100000000000000000000000000000000000000000000000000000000600052604160045260246000fd5b60405190808252806020026020018201604052801561040e578160200160208202803683370190505b50905060005b83811015610514576040517f82b866000000000000000000000000000000000000000000000000000000000081526001600160a01b038416906382b8660090610461908490600401610de9565b60206040518083038186803b15801561047957600080fd5b505afa15801561048d573d6000803e3d6000fd5b505050506040513d601f19601f820116820180604052508101906104b19190610ab6565b8282815181106104ea577f4e487b7100000000000000000000000000000000000000000000000000000000600052603260045260246000fd5b6001600160a01b03909216602092830291909101909101528061050c81610e58565b915050610414565b5060005b8381101561063f57600082828151811061055b577f4e487b7100000000000000000000000000000000000000000000000000000000600052603260045260246000fd5b6020026020010151905060008260016105749190610e40565b90505b8581101561062a5760008482815181106105ba577f4e487b7100000000000000000000000000000000000000000000000000000000600052603260045260246000fd5b6020908102919091018101516001600160a01b038581166000908152600284526040808220938316825292909352912080547fffffffffffffffffffffffff000000000000000000000000000000000000000016918a16919091179055508061062281610e58565b915050610577565b5050808061063790610e58565b915050610518565b5050505050565b61064e610986565b6001600160a01b031661065f6102d1565b6001600160a01b0316146106855760405162461bcd60e51b81526004016102bc90610d55565b6001600160a01b0381166106ab5760405162461bcd60e51b81526004016102bc90610c64565b6106b48161098a565b50565b6000806000806106c78888610125565b919450925090506001600160a01b0381166106f45760405162461bcd60e51b81526004016102bc90610d8a565b6040517f23b872dd000000000000000000000000000000000000000000000000000000008152819042906001600160a01b038b16906323b872dd9061074190339030908d90600401610c27565b602060405180830381600087803b15801561075b57600080fd5b505af115801561076f573d6000803e3d6000fd5b505050506040513d601f19601f820116820180604052508101906107939190610bba565b506040517f095ea7b30000000000000000000000000000000000000000000000000000000081526001600160a01b038b169063095ea7b3906107db9086908c90600401610c4b565b602060405180830381600087803b1580156107f557600080fd5b505af1158015610809573d6000803e3d6000fd5b505050506040513d601f19601f8201168201806040525081019061082d9190610bba565b6108495760405162461bcd60e51b81526004016102bc90610d1e565b60006001600160a01b038316639169558687878c8c61086988601e610e40565b6040518663ffffffff1660e01b8152600401610889959493929190610e15565b602060405180830381600087803b1580156108a357600080fd5b505af11580156108b7573d6000803e3d6000fd5b505050506040513d601f19601f820116820180604052508101906108db9190610bda565b6040517fa9059cbb0000000000000000000000000000000000000000000000000000000081529091506001600160a01b038b169063a9059cbb906109259033908590600401610c4b565b602060405180830381600087803b15801561093f57600080fd5b505af1158015610953573d6000803e3d6000fd5b505050506040513d601f19601f820116820180604052508101906109779190610bba565b509a9950505050505050505050565b3390565b600080546001600160a01b038381167fffffffffffffffffffffffff0000000000000000000000000000000000000000831681178455604051919092169283917f8be0079c531659141344cd1fd0a4f28419497f9722a3daafe3b4186f6b6457e09190a35050565b6040517fa95b089f00000000000000000000000000000000000000000000000000000000815260009082906001600160a01b0382169063a95b089f90610a4090899089908990600401610df7565b60206040518083038186803b158015610a5857600080fd5b505afa158015610a6c573d6000803e3d6000fd5b505050506040513d601f19601f82011682018060405250810190610a909190610bda565b9695505050505050565b600060208284031215610aab578081fd5b813561032381610ec0565b600060208284031215610ac7578081fd5b815161032381610ec0565b60008060408385031215610ae4578081fd5b8235610aef81610ec0565b91506020830135610aff81610ec0565b809150509250929050565b600080600060608486031215610b1e578081fd5b8335610b2981610ec0565b92506020840135610b3981610ec0565b929592945050506040919091013590565b60008060008060808587031215610b5f578081fd5b8435610b6a81610ec0565b93506020850135610b7a81610ec0565b93969395505050506040820135916060013590565b60008060408385031215610ba1578182fd5b8235610bac81610ec0565b946020939093013593505050565b600060208284031215610bcb578081fd5b81518015158114610323578182fd5b600060208284031215610beb578081fd5b5051919050565b600060208284031215610c03578081fd5b815160ff81168114610323578182fd5b6001600160a01b0391909116815260200190565b6001600160a01b039384168152919092166020820152604081019190915260600190565b6001600160a01b03929092168252602082015260400190565b60208082526026908201527f4f776e61626c653a206e6577206f776e657220697320746865207a65726f206160408201527f6464726573730000000000000000000000000000000000000000000000000000606082015260800190565b6020808252602a908201527f54686973207377617020636f6e74726163742068617320616c7265616479206260408201527f65656e2061646465642100000000000000000000000000000000000000000000606082015260800190565b6020808252600f908201527f417070726f76616c206661696c65640000000000000000000000000000000000604082015260600190565b6020808252818101527f4f776e61626c653a2063616c6c6572206973206e6f7420746865206f776e6572604082015260600190565b6020808252601c908201527f5377617020636f6e747261637420646f6573206e6f7420657869737400000000604082015260600190565b90815260200190565b92835260208301919091526001600160a01b0316604082015260600190565b60ff91909116815260200190565b60ff9384168152919092166020820152604081019190915260600190565b60ff958616815293909416602084015260408301919091526060820152608081019190915260a00190565b60008219821115610e5357610e53610e91565b500190565b60007fffffffffffffffffffffffffffffffffffffffffffffffffffffffffffffffff821415610e8a57610e8a610e91565b5060010190565b7f4e487b7100000000000000000000000000000000000000000000000000000000600052601160045260246000fd5b6001600160a01b03811681146106b457600080fdfea2646970667358221220cb8b9aaf2d60a31a7c9bd911e6297e9b287c1760e1b3d77e096461f569970e5b64736f6c63430008000033",
  "devdoc": {
    "kind": "dev",
    "methods": {
      "owner()": {
        "details": "Returns the address of the current owner."
      },
      "renounceOwnership()": {
        "details": "Leaves the contract without owner. It will not be possible to call `onlyOwner` functions anymore. Can only be called by the current owner. NOTE: Renouncing ownership will leave the contract without an owner, thereby removing any functionality that is only available to the owner."
      },
      "transferOwnership(address)": {
        "details": "Transfers ownership of the contract to a new account (`newOwner`). Can only be called by the current owner."
      }
    },
    "version": 1
  },
  "userdoc": {
    "kind": "user",
    "methods": {},
    "version": 1
  },
  "storageLayout": {
    "storage": [
      {
        "astId": 7,
        "contract": "contracts/AMMs/MobiusWrapper.sol:MobiusWrapper",
        "label": "_owner",
        "offset": 0,
        "slot": "0",
        "type": "t_address"
      },
      {
        "astId": 856,
        "contract": "contracts/AMMs/MobiusWrapper.sol:MobiusWrapper",
        "label": "tokensToSwap",
        "offset": 0,
        "slot": "1",
        "type": "t_mapping(t_address,t_array(t_address)dyn_storage)"
      },
      {
        "astId": 862,
        "contract": "contracts/AMMs/MobiusWrapper.sol:MobiusWrapper",
        "label": "tokenRoute",
        "offset": 0,
        "slot": "2",
        "type": "t_mapping(t_address,t_mapping(t_address,t_address))"
      },
      {
        "astId": 866,
        "contract": "contracts/AMMs/MobiusWrapper.sol:MobiusWrapper",
        "label": "swapContained",
        "offset": 0,
        "slot": "3",
        "type": "t_mapping(t_address,t_bool)"
      }
    ],
    "types": {
      "t_address": {
        "encoding": "inplace",
        "label": "address",
        "numberOfBytes": "20"
      },
      "t_array(t_address)dyn_storage": {
        "base": "t_address",
        "encoding": "dynamic_array",
        "label": "address[]",
        "numberOfBytes": "32"
      },
      "t_bool": {
        "encoding": "inplace",
        "label": "bool",
        "numberOfBytes": "1"
      },
      "t_mapping(t_address,t_address)": {
        "encoding": "mapping",
        "key": "t_address",
        "label": "mapping(address => address)",
        "numberOfBytes": "32",
        "value": "t_address"
      },
      "t_mapping(t_address,t_array(t_address)dyn_storage)": {
        "encoding": "mapping",
        "key": "t_address",
        "label": "mapping(address => address[])",
        "numberOfBytes": "32",
        "value": "t_array(t_address)dyn_storage"
      },
      "t_mapping(t_address,t_bool)": {
        "encoding": "mapping",
        "key": "t_address",
        "label": "mapping(address => bool)",
        "numberOfBytes": "32",
        "value": "t_bool"
      },
      "t_mapping(t_address,t_mapping(t_address,t_address))": {
        "encoding": "mapping",
        "key": "t_address",
        "label": "mapping(address => mapping(address => address))",
        "numberOfBytes": "32",
        "value": "t_mapping(t_address,t_address)"
      }
    }
  }
}