{
  "address": "0x5F6d4D3ee530cDD44bEbc4c067ec8c4ebAa99649",
  "abi": [
    {
      "inputs": [
        {
          "internalType": "uint256",
          "name": "amountIn",
          "type": "uint256"
        },
        {
          "internalType": "uint256",
          "name": "amountOut",
          "type": "uint256"
        }
      ],
      "name": "exchangeRate",
      "outputs": [
        {
          "internalType": "uint256",
          "name": "exchange",
          "type": "uint256"
        }
      ],
      "stateMutability": "pure",
      "type": "function"
    }
  ],
  "transactionHash": "0x7e186159db24bef402b021224eaa3bb27d487a1074ebc51ee8b47d9789a878be",
  "args": [],
  "solcInputHash": "363879559355511f2c2861c9db5add6b",
  "bytecode": "0x61018461003a600b82828239805160001a60731461002d57634e487b7160e01b600052600060045260246000fd5b30600052607381538281f3fe73000000000000000000000000000000000000000030146080604052600436106100355760003560e01c8063ed7248041461003a575b600080fd5b61004d610048366004610089565b610063565b60405161005a91906100aa565b60405180910390f35b600082610078670de0b6b3a7640000846100ec565b61008291906100b3565b9392505050565b6000806040838503121561009b578182fd5b50508035926020909101359150565b90815260200190565b6000826100e7577f4e487b710000000000000000000000000000000000000000000000000000000081526012600452602481fd5b500490565b6000817fffffffffffffffffffffffffffffffffffffffffffffffffffffffffffffffff0483118215151615610149577f4e487b710000000000000000000000000000000000000000000000000000000081526011600452602481fd5b50029056fea2646970667358221220a3c1349275fdc0859b2a673667c66f3b07eaca163f7a6b6cd0122d6fd2aac5a264736f6c63430008000033",
  "devdoc": {
    "kind": "dev",
    "methods": {},
    "stateVariables": {
      "SCALE": {
        "details": "How many trailing decimals can be represented."
      }
    },
    "version": 1
  },
  "userdoc": {
    "kind": "user",
    "methods": {},
    "version": 1
  },
  "storageLayout": {
    "storage": [],
    "types": null
  }
}