{
  "address": "0x074a4aB9F49EE9718d26E54d78f6C81b1EdE3654",
  "abi": [
    {
      "anonymous": false,
      "inputs": [
        {
          "indexed": true,
          "internalType": "address",
          "name": "previousOwner",
          "type": "address"
        },
        {
          "indexed": true,
          "internalType": "address",
          "name": "newOwner",
          "type": "address"
        }
      ],
      "name": "OwnershipTransferred",
      "type": "event"
    },
    {
      "inputs": [
        {
          "internalType": "address[]",
          "name": "tokens",
          "type": "address[]"
        }
      ],
      "name": "addSupportedTokens",
      "outputs": [],
      "stateMutability": "nonpayable",
      "type": "function"
    },
    {
      "inputs": [
        {
          "internalType": "address",
          "name": "tokenIn",
          "type": "address"
        },
        {
          "internalType": "address",
          "name": "tokenOut",
          "type": "address"
        },
        {
          "internalType": "uint256",
          "name": "amountIn",
          "type": "uint256"
        }
      ],
      "name": "getQuote",
      "outputs": [
        {
          "internalType": "uint256",
          "name": "",
          "type": "uint256"
        }
      ],
      "stateMutability": "view",
      "type": "function"
    },
    {
      "inputs": [
        {
          "internalType": "address",
          "name": "tokenIn",
          "type": "address"
        },
        {
          "internalType": "uint256",
          "name": "amountIn",
          "type": "uint256"
        }
      ],
      "name": "getQuotes",
      "outputs": [
        {
          "internalType": "uint256[]",
          "name": "expectedOut",
          "type": "uint256[]"
        },
        {
          "internalType": "address[]",
          "name": "tokensOut",
          "type": "address[]"
        }
      ],
      "stateMutability": "view",
      "type": "function"
    },
    {
      "inputs": [],
      "name": "owner",
      "outputs": [
        {
          "internalType": "address",
          "name": "",
          "type": "address"
        }
      ],
      "stateMutability": "view",
      "type": "function"
    },
    {
      "inputs": [],
      "name": "renounceOwnership",
      "outputs": [],
      "stateMutability": "nonpayable",
      "type": "function"
    },
    {
      "inputs": [
        {
          "internalType": "uint256",
          "name": "",
          "type": "uint256"
        }
      ],
      "name": "supportedTokens",
      "outputs": [
        {
          "internalType": "address",
          "name": "",
          "type": "address"
        }
      ],
      "stateMutability": "view",
      "type": "function"
    },
    {
      "inputs": [
        {
          "internalType": "address",
          "name": "tokenIn",
          "type": "address"
        },
        {
          "internalType": "address",
          "name": "tokenOut",
          "type": "address"
        },
        {
          "internalType": "uint256",
          "name": "amountIn",
          "type": "uint256"
        },
        {
          "internalType": "uint256",
          "name": "minAmountOut",
          "type": "uint256"
        }
      ],
      "name": "swap",
      "outputs": [
        {
          "internalType": "uint256",
          "name": "",
          "type": "uint256"
        }
      ],
      "stateMutability": "nonpayable",
      "type": "function"
    },
    {
      "inputs": [
        {
          "internalType": "address",
          "name": "newOwner",
          "type": "address"
        }
      ],
      "name": "transferOwnership",
      "outputs": [],
      "stateMutability": "nonpayable",
      "type": "function"
    },
    {
      "inputs": [],
      "name": "ubeswap",
      "outputs": [
        {
          "internalType": "contract IUbeswapRouter",
          "name": "",
          "type": "address"
        }
      ],
      "stateMutability": "view",
      "type": "function"
    }
  ],
  "transactionHash": "0x0d29a1cf3af61982dba4659a8f088f9ac5ae6aeafdb1d7d3469a9aab968e3a12",
  "args": [],
  "solcInputHash": "012008fbf0d13dacd607bc58cc486cfe",
  "bytecode": "0x608060405234801561001057600080fd5b5061002161001c610026565b61002a565b61007a565b3390565b600080546001600160a01b038381166001600160a01b0319831681178455604051919092169283917f8be0079c531659141344cd1fd0a4f28419497f9722a3daafe3b4186f6b6457e09190a35050565b61114f806100896000396000f3fe608060405234801561001057600080fd5b50600436106100a35760003560e01c8063c515ee2311610076578063e785f45b1161005b578063e785f45b1461011e578063f2fde38b1461013f578063fe02915614610152576100a3565b8063c515ee23146100eb578063c62556261461010b576100a3565b8063715018a6146100a85780638c7ac746146100b25780638da5cb5b146100c5578063a356ce58146100e3575b600080fd5b6100b0610165565b005b6100b06100c0366004610c80565b6101d3565b6100cd6102d1565b6040516100da9190610e8a565b60405180910390f35b6100cd6102e0565b6100fe6100f9366004610bd0565b6102f8565b6040516100da9190611015565b6100cd610119366004610e17565b61030d565b61013161012c366004610c55565b610337565b6040516100da929190610ef5565b6100b061014d366004610b91565b6104c6565b6100fe610160366004610c10565b61056b565b61016d610886565b6001600160a01b031661017e6102d1565b6001600160a01b0316146101c7576040517f08c379a00000000000000000000000000000000000000000000000000000000081526004016101be90610fe0565b60405180910390fd5b6101d1600061088a565b565b6101db610886565b6001600160a01b03166101ec6102d1565b6001600160a01b03161461022c576040517f08c379a00000000000000000000000000000000000000000000000000000000081526004016101be90610fe0565b600160005b828110156102cb578184848381811061025a57634e487b7160e01b600052603260045260246000fd5b905060200201602081019061026f9190610b91565b81546001810183556000928352602090922090910180547fffffffffffffffffffffffff0000000000000000000000000000000000000000166001600160a01b03909216919091179055806102c38161109f565b915050610231565b50505050565b6000546001600160a01b031690565b73e3d8bd6aed4f159bc8000a9cd47cffdb95f9612181565b60006103058484846108f2565b949350505050565b6001818154811061031d57600080fd5b6000918252602090912001546001600160a01b0316905081565b606080600180548060200260200160405190810160405280929190818152602001828054801561039057602002820191906000526020600020905b81546001600160a01b03168152600190910190602001808311610372575b5050600154939450505067ffffffffffffffff82111590506103c257634e487b7160e01b600052604160045260246000fd5b6040519080825280602002602001820160405280156103eb578160200160208202803683370190505b50915060005b6001548110156104be5760006001828154811061041e57634e487b7160e01b600052603260045260246000fd5b6000918252602090912001546001600160a01b039081169150861681141561047357600084838151811061046257634e487b7160e01b600052603260045260246000fd5b6020026020010181815250506104ab565b61047e8682876108f2565b84838151811061049e57634e487b7160e01b600052603260045260246000fd5b6020026020010181815250505b50806104b68161109f565b9150506103f1565b509250929050565b6104ce610886565b6001600160a01b03166104df6102d1565b6001600160a01b03161461051f576040517f08c379a00000000000000000000000000000000000000000000000000000000081526004016101be90610fe0565b6001600160a01b03811661055f576040517f08c379a00000000000000000000000000000000000000000000000000000000081526004016101be90610f4c565b6105688161088a565b50565b6040805160028082526060820183526000928392919060208301908036833701905050905085816000815181106105b257634e487b7160e01b600052603260045260246000fd5b60200260200101906001600160a01b031690816001600160a01b03168152505084816001815181106105f457634e487b7160e01b600052603260045260246000fd5b6001600160a01b0392831660209182029290920101526040517f23b872dd00000000000000000000000000000000000000000000000000000000815242918816906323b872dd9061064d90339030908a90600401610eb8565b602060405180830381600087803b15801561066757600080fd5b505af115801561067b573d6000803e3d6000fd5b505050506040513d601f19601f8201168201806040525081019061069f9190610da9565b506040517f095ea7b30000000000000000000000000000000000000000000000000000000081526001600160a01b0388169063095ea7b3906106fb9073e3d8bd6aed4f159bc8000a9cd47cffdb95f96121908990600401610edc565b602060405180830381600087803b15801561071557600080fd5b505af1158015610729573d6000803e3d6000fd5b505050506040513d601f19601f8201168201806040525081019061074d9190610da9565b610783576040517f08c379a00000000000000000000000000000000000000000000000000000000081526004016101be90610fa9565b600073e3d8bd6aed4f159bc8000a9cd47cffdb95f961216338ed1739878786336107ae88601e611070565b6040518663ffffffff1660e01b81526004016107ce95949392919061101e565b600060405180830381600087803b1580156107e857600080fd5b505af11580156107fc573d6000803e3d6000fd5b505050506040513d6000823e601f3d9081017fffffffffffffffffffffffffffffffffffffffffffffffffffffffffffffffe01682016040526108429190810190610cef565b905080600182516108539190611088565b8151811061087157634e487b7160e01b600052603260045260246000fd5b60200260200101519350505050949350505050565b3390565b600080546001600160a01b038381167fffffffffffffffffffffffff0000000000000000000000000000000000000000831681178455604051919092169283917f8be0079c531659141344cd1fd0a4f28419497f9722a3daafe3b4186f6b6457e09190a35050565b6040517f96ed28f9000000000000000000000000000000000000000000000000000000008152600090819073e3d8bd6aed4f159bc8000a9cd47cffdb95f96121906396ed28f9906109499088908890600401610e9e565b60206040518083038186803b15801561096157600080fd5b505afa158015610975573d6000803e3d6000fd5b505050506040513d601f19601f820116820180604052508101906109999190610bb4565b9050600080826001600160a01b0316630902f1ac6040518163ffffffff1660e01b815260040160606040518083038186803b1580156109d757600080fd5b505afa1580156109eb573d6000803e3d6000fd5b505050506040513d601f19601f82011682018060405250810190610a0f9190610dc9565b506dffffffffffffffffffffffffffff1691506dffffffffffffffffffffffffffff169150826001600160a01b0316630dfe16816040518163ffffffff1660e01b815260040160206040518083038186803b158015610a6d57600080fd5b505afa158015610a81573d6000803e3d6000fd5b505050506040513d601f19601f82011682018060405250810190610aa59190610bb4565b6001600160a01b0316876001600160a01b031614610abf57905b6040517f054d50d400000000000000000000000000000000000000000000000000000000815273e3d8bd6aed4f159bc8000a9cd47cffdb95f961219063054d50d490610b139088908690869060040161105a565b60206040518083038186803b158015610b2b57600080fd5b505afa158015610b3f573d6000803e3d6000fd5b505050506040513d601f19601f82011682018060405250810190610b639190610e2f565b979650505050505050565b80516dffffffffffffffffffffffffffff81168114610b8c57600080fd5b919050565b600060208284031215610ba2578081fd5b8135610bad81611104565b9392505050565b600060208284031215610bc5578081fd5b8151610bad81611104565b600080600060608486031215610be4578182fd5b8335610bef81611104565b92506020840135610bff81611104565b929592945050506040919091013590565b60008060008060808587031215610c25578081fd5b8435610c3081611104565b93506020850135610c4081611104565b93969395505050506040820135916060013590565b60008060408385031215610c67578182fd5b8235610c7281611104565b946020939093013593505050565b60008060208385031215610c92578182fd5b823567ffffffffffffffff80821115610ca9578384fd5b818501915085601f830112610cbc578384fd5b813581811115610cca578485fd5b8660208083028501011115610cdd578485fd5b60209290920196919550909350505050565b60006020808385031215610d01578182fd5b825167ffffffffffffffff80821115610d18578384fd5b818501915085601f830112610d2b578384fd5b815181811115610d3d57610d3d6110ee565b83810260405185828201018181108582111715610d5c57610d5c6110ee565b604052828152858101935084860182860187018a1015610d7a578788fd5b8795505b83861015610d9c578051855260019590950194938601938601610d7e565b5098975050505050505050565b600060208284031215610dba578081fd5b81518015158114610bad578182fd5b600080600060608486031215610ddd578283fd5b610de684610b6e565b9250610df460208501610b6e565b9150604084015163ffffffff81168114610e0c578182fd5b809150509250925092565b600060208284031215610e28578081fd5b5035919050565b600060208284031215610e40578081fd5b5051919050565b6000815180845260208085019450808401835b83811015610e7f5781516001600160a01b031687529582019590820190600101610e5a565b509495945050505050565b6001600160a01b0391909116815260200190565b6001600160a01b0392831681529116602082015260400190565b6001600160a01b039384168152919092166020820152604081019190915260600190565b6001600160a01b03929092168252602082015260400190565b604080825283519082018190526000906020906060840190828701845b82811015610f2e57815184529284019290840190600101610f12565b50505083810382850152610f428186610e47565b9695505050505050565b60208082526026908201527f4f776e61626c653a206e6577206f776e657220697320746865207a65726f206160408201527f6464726573730000000000000000000000000000000000000000000000000000606082015260800190565b6020808252600f908201527f417070726f76616c206661696c65640000000000000000000000000000000000604082015260600190565b6020808252818101527f4f776e61626c653a2063616c6c6572206973206e6f7420746865206f776e6572604082015260600190565b90815260200190565b600086825285602083015260a0604083015261103d60a0830186610e47565b6001600160a01b0394909416606083015250608001529392505050565b9283526020830191909152604082015260600190565b60008219821115611083576110836110d8565b500190565b60008282101561109a5761109a6110d8565b500390565b60007fffffffffffffffffffffffffffffffffffffffffffffffffffffffffffffffff8214156110d1576110d16110d8565b5060010190565b634e487b7160e01b600052601160045260246000fd5b634e487b7160e01b600052604160045260246000fd5b6001600160a01b038116811461056857600080fdfea2646970667358221220f3bc7d23d8fdbfee455a97e6875033c9deabbcd3ca63ed227288a279d86c285664736f6c63430008000033",
  "devdoc": {
    "kind": "dev",
    "methods": {
      "owner()": {
        "details": "Returns the address of the current owner."
      },
      "renounceOwnership()": {
        "details": "Leaves the contract without owner. It will not be possible to call `onlyOwner` functions anymore. Can only be called by the current owner. NOTE: Renouncing ownership will leave the contract without an owner, thereby removing any functionality that is only available to the owner."
      },
      "transferOwnership(address)": {
        "details": "Transfers ownership of the contract to a new account (`newOwner`). Can only be called by the current owner."
      }
    },
    "version": 1
  },
  "userdoc": {
    "kind": "user",
    "methods": {},
    "version": 1
  },
  "storageLayout": {
    "storage": [
      {
        "astId": 7,
        "contract": "contracts/AMMs/UbeswapWrapper.sol:UbeswapWrapper",
        "label": "_owner",
        "offset": 0,
        "slot": "0",
        "type": "t_address"
      },
      {
        "astId": 1299,
        "contract": "contracts/AMMs/UbeswapWrapper.sol:UbeswapWrapper",
        "label": "supportedTokens",
        "offset": 0,
        "slot": "1",
        "type": "t_array(t_address)dyn_storage"
      }
    ],
    "types": {
      "t_address": {
        "encoding": "inplace",
        "label": "address",
        "numberOfBytes": "20"
      },
      "t_array(t_address)dyn_storage": {
        "base": "t_address",
        "encoding": "dynamic_array",
        "label": "address[]",
        "numberOfBytes": "32"
      }
    }
  }
}